S00C0000554152542E73726563DC
S31500000000580E0020DD210000C9200000D921000083
S31500000010D9210000D9210000D9210000D9210000F2
S31500000020000000000000000000000000D9210000D0
S31500000030D921000000000000D9210000D9210000CC
S3150000004000000000A11300000000000021150000C0
S31500000050A91D000000000000B51D00000000000002
S315000000603514000000000000D51400000000000058
S31500000070000000000000000000000000000000007A
S31500000080000000000000000000000000000000006A
S31500000090000000000000000000000000000000005A
S315000000A0000000000000000000000000000000004A
S31500000400FFFFFFFFDFCEFFFFFCFF0F00FFFF0F0028
S31500000410FCFF0F00FFFF0F00FCFF0F00FFFF0F00A8
S31500000420FCFF0F20FFFF0F20FCFF7F40FFFF7F40F8
S31500000430FCFF0D40FFFF0D40FFFFFFFFFFFFFFFF2B
S31500000440FFFFFFFFFFFFFFFFFFFFFFFFFFFFFFFFB6
S31500000450FFFFFFFFFFFFFFFFFFFFFFFFFFFFFFFFA6
S31500000460FFFFFFFFFFFFFFFFFFFFFFFFFFFFFFFF96
S31500000470FFFFFFFFFFFFFFFFFFFFFFFFFFFFFFFF86
S31500000480FFFFFFFFFFFFFFFFFFFFFFFFFFFFFFFF76
S31500000490FFFFFFFFFFFFFFFFFFFFFFFFFFFFFFFF66
S315000004A0FFFFFFFFFFFFFFFFFFFFFFFFFFFFFFFF56
S315000004B0FFFFFFFFFFFFFFFFFFFFFFFFFFFFFFFF46
S315000004C0FFFFFFFFFFFFFFFFFFFFFFFFFFFFFFFF36
S315000004D0FFFFFFFFFFFFFFFFFFFFFFFFFFFFFFFF26
S315000004E0FFFFFFFFFFFFFFFFFFFFFFFFFFFFFFFF16
S315000004F0FFFFFFFFFFFFFFFFFFFFFFFFFFFFFFFF06
S3150000050010B540F22004C2F20004237863B940F229
S315000005100003C0F200032BB142F63060C0F20000C7
S3150000052000E000BF0123237010BDC04640F2000367
S31500000530C0F2000310B54BB140F2240142F6306020
S31500000540C2F20001C0F2000000E000BF10BDC046CC
S31500000550F8B58368C568CE4699465B1B47469846FC
S315000005604368040080B50E0017005819904509D954
S3150000057002F066FABFF35F8FED19E560C0BCB946BD
S31500000580B046F8BD424602F05BFA4B463100ED1923
S31500000590ED1A2A006068414402F052FABFF35F8FF9
S315000005A0E560EBE7F8B54746CE46884680B51600C7
S315000005B0070040F20009C56884681CE0013B5B1B2C
S315000005C0641BB44200D934009C4200D91C007B68ED
S315000005D022004146581902F033FA2D19A144A044CD
S315000005E0361BBC68631B5A1E93415B421D40BFF31A
S315000005F05F8FFD6036B13B699D42DFD3013B1B191E
S315000006005B1BDDE74846C0BCB946B046F8BDC046F0
S3150000061010B540F23C04C2F20004A82200212000DA
S3150000062002F017FA032342F6CC222361636140F2FB
S31500000630F403C0F20002C2F20003A261E36140F2D9
S31500000640004323620023A3626362E362226640F2F0
S31500000650E402C2F2000262661022A2662367E36623
S315000006606367BFF35F8F42F6D8225321C0F20002C0
S3150000067001E00F215156E1540133013A102BF8D114
S31500000680BFF35F8F10BDC046431C70B50400580011
S31500000690C01840F23C03C2F200039C4663001B19DB
S315000006A0DB006344DC6AC00015006044012C05D001
S315000006B0022C1ED084B10024200070BD9A6A5C6AA8
S315000006C0A2421FD9013A121B2C00954200D91400F0
S315000006D02200FFF73DFFEFE79A6A5E6AB2420CD945
S315000006E0013A921B9542E7D82A00FFF731FF2C000A
S315000006F0E2E7FFF757FF0400DEE71B6AD218013A6C
S31500000700921BEFE71B6AD218013A121BDCE7C046C0
S31500000710F8B540F23C03C2F200031B7804000D005A
S315000007201600532B01D0FFF773FFEFF3108701215B
S3150000073081F31088320029002000FFF7A5FF87F318
S315000007401088F8BD10B5040083686268581C904292
S3150000075007D82268D154E36862680133E360030076
S31500000760A0609A4200D010BD21682069FFF7D0FF33
S31500000770A368984203D001235B42E360F3E70023BA
S31500000780A360F0E7F8B557464E464546DE46E0B567
S315000007901E000A9B0F00814615009A460B99974248
S315000007A06DD33B000122B3FBF5F301329D42FAD92A
S315000007B09046B24200D2B04601231A000A40934640
S315000007C00B4240D15346002B3DD020248B0751D4F9
S315000007D0D04538D201235B429C4621004846E2447C
S315000007E0FFF7B0FF4B46DB68002B26DB5346002B9A
S315000007F0EED10124012E03D9013E6C43012EFBD814
S31500000800B7FBF4F39D42F8D942F67036C0F2000603
S3150000081006E0B4FBF5F3AC420DD31C00B7FBF3F3D3
S3150000082022005A43F1564846BF1AFFF78BFF4B4644
S31500000830DB68002BEDDA5B46C3B9F0BCBB46B246BB
S31500000840A946A046F8BD4B46DB68002BD1DAF4E793
S31500000850D045F2D201235B429C4620214846E24421
S31500000860FFF770FF4B46DB68002BE6DB5346002B99
S31500000870EED1E2E77442744124012034A8E7012254
S3150000088096E7C046F0B5DE4657464E464546E0B5C5
S315000008909DB00CAB079340230893002309930A935A
S315000008A0B74B83460C00904640F201099A460B90DE
S315000008B005E007A8FFF746FF0A98002861DB00213C
S315000008C061560134002963D02529F2D12200002384
S315000008D0D356002602250820140021392D2B0DD0D1
S315000008E02D2B0FDC232B12D02B2B00D04CE10E43EB
S315000008F001320023D35614002D2BF1D14B46013281
S315000009001E43F6E7302B05D12E430132F1E70643AD
S315000009100132EEE71A00303AD2B20025092A0FD882
S315000009201900AB005B195B005B18002101346156AE
S31500000930303B0A00303AD2B21D00092AF1D90B0029
S315000009402E2B00D1CDE000230027E356042102E040
S3150000095000230134E3561A008A43682AF8D0252B6F
S3150000096007D0583BDBB2202B07D852469B00D35802
S315000009709F46252107A8FFF7E5FE0A9801340028BF
S315000009809DDA1DB0F0BCBB46B246A946A046F0BDF6
S315000009900A980028F5DD099A002A00D0BDE08018E3
S315000009A0EFE7434641461B6807A81A1D0A60196807
S315000009B010223B0001960095FFF7E4FE01340A98E9
S315000009C0DDE7434641461B6807A81A1D0A601968F9
S315000009D00A223B0001960095FFF7D4FE01340A98DF
S315000009E0CDE7434641461B681A1D0A601D6805E0AF
S315000009F007A8FFF7A7FE0A980028BFDB0021695663
S31500000A0001350029F4D10A98B8E7434641461B68E8
S31500000A1007A81A1D0A6019680023019308331022DB
S31500000A200093FFF7AFFE01340A98A8E74346414614
S31500000A301B681A1D1B680A60DA1703939B1853403C
S31500000A400122092B06DD0A201900013293FBF0F37F
S31500000A506329F9DC0497974267D385B3039B002B80
S31500000A6067DB730765D4B30700D547B34B463342FC
S31500000A7025D125B30596049EAE421FD207A8202194
S31500000A80FFF760FE0A98013D002800DA76E7002DA0
S31500000A90F2D1059E039B002B4DDB730756D403232F
S31500000AA03340022B57D007A83B000A220399019630
S31500000AB00095FFF767FE01340A9860E7059E0A98DD
S31500000AC00028E7DA01345AE7434641461B6807A87F
S31500000AD01A1D0A6000215956FFF734FE01340A98A0
S31500000AE04DE70123E356611C1A00303AD2B20C00DE
S31500000AF00027092A00D929E71900BB00DB195B008A
S31500000B005B18002101346156303B0A00303AD2B2FC
S31500000B101F00092AF1D90B0018E758460CA9FFF760
S31500000B20F7FD0A98099A80182BE70492002DC6D083
S31500000B3094E7013D97E75B422D2107A80393FFF752
S31500000B4001FE0A980028AADA013418E72B2107A823
S31500000B50FFF7F8FDF5E7002FA5D19DB1049BAB4249
S31500000B6009D207A83021FFF7EDFD0A98013D0028BC
S31500000B70F3DA013403E70A98002894DA0134FEE632
S31500000B80EC2A000000258EE70025DCE60EB400B551
S31500000B9082B003AB02CB01AA0193FFF773FE02B04A
S31500000BA008BC03B01847C04642F6803110B50200B3
S31500000BB00020C0F20001FFF7E9FF10BD0B0042F66E
S31500000BC0843110B502000020C0F20001FFF7DEFFFD
S31500000BD010BDC046F8B5DE4657464E464546E0B51A
S31500000BE083460D00924601F0BFFE060060B3002862
S31500000BF061DD6B1E01000022994640F20A0891FB56
S31500000C00F8F74C46BB00DB195B00CB1A30331000FB
S31500000C100132A3540B003900092BF0DC5710002FCA
S31500000C204FD0B9462B002918A944002400270C5799
S31500000C30DF571C7001330F7001399945F5D1831CBC
S31500000C4099469846AA1806E0302340F2020840F278
S31500000C5002092B706A1C2E233000137001F0A4FECB
S31500000C60011C584601F0D4FC5346002B1ADD4B46B6
S31500000C70EF185346EE184E440021C4F2201101F03D
S31500000C809FFB041C01F070FE030030333B7001F043
S31500000C908BFE0137011C201C01F0BAFCBE42EBD1D1
S31500000CA0D046C84442460023AB54F0BCBB46B246CD
S31500000CB0A946A046F8BD2A0040F2010840F2010903
S31500000CC0C9E740F20208AA18C146C4E740F61C1359
S31500000CD00122C2F200031A707047C046F0B540F612
S31500000CE02810C646012200B540F20621C2F20000D5
S31500000CF000F084FC42F6CC4140F65410C0F20001EC
S31500000D00C2F2000000F0F8F942F6944140F63010C5
S31500000D10C0F20001C2F2000000F06EFE40F628109C
S31500000D20012240F20041C2F2000000F067FC40F6EA
S31500000D30281001220221C2F2000000F05FFC40F2FE
S31500000D40E83140F22C1001F091F940F6281001220A
S31500000D5040F20141C2F2000000F050FC40F2E831DE
S31500000D6040F22C1001F082F940F62810012240F2E0
S31500000D700721C2F2000000F041FC40F2E83140F2E7
S31500000D80EE2001F073F940F6281040F2187642F68C
S31500000D90903540F2FC4440F2F84740F2F448002215
S31500000DA040F20721C2F2000000F028FC40F2E831D0
S31500000DB0642001F05BF9C2F20006C0F20005C2F23F
S31500000DC00004C2F20007C2F2000884E040F2187282
S31500000DD042F69C31C2F20002C0F200010020FFF789
S31500000DE0D5FE40F2005140F654101022C2F2000126
S31500000DF0C2F2000000F0F0F840F2005242F6AC31C8
S31500000E00C2F20002C0F200010020FFF7BFFE42F668
S31500000E10B84140F63010C0F20001C2F2000000F006
S31500000E20A3FE2060002871D142F6E030C0F2000037
S31500000E30FFF7BAFE40F63010C2F2000000F03AFDAD
S31500000E4040F2E831206040F22C1001F00FF92368DF
S31500000E50002B62D140F2F84240F630100021C2F277
S31500000E600002C2F2000000F02BFD206028B142F61D
S31500000E701C40C0F20000FFF797FE388801F094FD91
S31500000E8046F26661C3F6E67101F09AFAE621890533
S31500000E9001F096FA40F6201143460222C2F2000102
S31500000EA01860FFF797FE42F63C403988C0F2000012
S31500000EB0FFF784FE40F6201242F660410020C0F2A1
S31500000EC00001C2F20002FFF761FE40F2E83140F293
S31500000ED0E83001F0CBF833002A0003CA03C340F21E
S31500000EE0187140F654101278C2F200011A70C2F25C
S31500000EF00000102200F074F8002800D066E740F2E7
S31500000F00E83140F2E83001F0B1F85FE742F6BC3074
S31500000F10C0F20000FFF748FE86E742F6F830C0F25E
S31500000F200000FFF741FE95E70379022B04D0042B5E
S31500000F300FD0012B07D0704740F618130122C2F2DA
S31500000F4000031A60F7E740F21472C2F2000213605F
S31500000F50F1E740F20073C2F200031A680F2AEAD8DA
S31500000F6042F6CC41C0F200014978022908D88168CE
S31500000F70501C186040F20473C2F200039954DAE779
S31500000F8040F204718068C2F20001885202321A608F
S31500000F90D1E7C04600B583B040B94CF200039022B9
S31500000FA00121C4F27E03995403B000BD0228FBD18F
S31500000FB042F6884340F62810C0F200035B68C2F28E
S31500000FC000001900019300F013FCEDE710B5FFF7E0
S31500000FD085FE002010BDC046416182610020704739
S31500000FE07B2330B5046AA5782B40A37083789B07D2
S31500000FF09B0FD21A02618022CB18C360A3781343D9
S31500001000A370032382781340022B03D00B78E3707E
S31500001010002030BD4FF600620B881343E381F7E7EB
S31500001020F0B51F2501241540AC404EF20015C6460A
S3150000103053092033CEF200059B0000B588465C516B
S31500001040BFF34F8FBFF36F8F130046F20004C03318
S31500001050C4F200049B001D59124E35401D511B5908
S315000010604EF20011FF240325CEF200018C4621002A
S3150000107040F200371540ED00A94093089B006344F9
S31500001080DE5992008E43414689010C40AC40344300
S31500001090DC5140F6C813C2F20003D05080BCB846FB
S315000010A0F0BDC046FFFFFEFFF0B5C64600B5050021
S315000010B0806A84B08C4690466C46D8B12300060000
S315000010C086CE86C336681E60EB691B78036063466E
S315000010D0836043460371EB6AC3606B6A9847AB6AE9
S315000010E023B107CC07C31A002368136004B080BC81
S315000010F0B846F0BD2000E7E743F60002C0F2002242
S315000011009446F8B54546DE4657464E460B78E0B55A
S3150000111063445B010362002303704A690D00426267
S315000011208A69C161C2620322012183628378040055
S3150000113093430B4383706B7823B9837893430222DE
S31500001140134383700B222000AA56A97AFFF768FF83
S3150000115005222000AA562979FFF762FF0722200000
S31500001160AA56A979FFF75CFF09222000AA56297A18
S31500001170FFF756FFEFF31086012080F310888021D9
S3150000118046F6FC732F780906F940C4F204035A6840
S315000011908A435A605B6886F310880022236A29789E
S315000011A09A701A715A729A72DA725A8340F20F2240
S315000011B0CA40104201D04022DA7406221A776878B3
S315000011C0AA78EE78E9692D780DB9734D9D821201E2
S315000011D0F6003243032800D1D9E0451EA84100019C
S315000011E0E230D2B21A7002229871087BFF264000C4
S315000011F0024020205A734A788D78D2016D0128402A
S3150000120032400243002018720878851E8346012D5D
S3150000121000D8B4E003274D68D2B2DA71AA786E78A6
S315000012205A701A783E40BA4332431A70EA785937F0
S315000012309A74DE792A78BE433A403243DA71002343
S3150000124005222361A361E3606361E369534F9A5604
S3150000125046F200031500C035C4F20003AD00EE5897
S31500001260BC463E40EE50ED58BFF35F8F40F21F0A7A
S315000012700126554637001540AF404EF20015CEF216
S315000012800005A94640F28015520992004A4457517A
S31500001290176040F2C008E2696046D27A52B29044C2
S315000012A04746BF00B846FF5807404046C750C0589B
S315000012B0BFF35F8F57461740B84637004046874012
S315000012C04EF20010CEF200008146520992004A44C6
S315000012D05751176040F2C008E269D27952B2904481
S315000012E0404680008046C05807006046074040469A
S315000012F0C750C058BFF35F8F57461740B8463700F0
S31500001300404687404EF20010CEF200008146520958
S3150000131092004A445751176040F2C008E269674696
S31500001320527A52B29044404680008046C0580740E8
S315000013304046C750C358BFF35F8F4EF2001357465F
S31500001340CEF2000317409C46BE405209920062440A
S31500001350565116600323584618406D331843236AC6
S3150000136098704B890020238144F65513C5F2433308
S315000013706360F0BCBB46B246A946A046F8BD5E70A7
S31500001380022801D110252A43D2B2DA7157E73D303F
S315000013900243B23025E7C04600F8FFFFFFFFFEFF1D
S315000013A070B5EFF30383103B5BB21A0046F20001FF
S315000013B0C032C4F20001920050581D4C20405050DB
S315000013C0525840F6C8129B00C2F200029858C369F0
S315000013D01B6913B1036913B170BD036983B97F2318
S315000013E0026A91780B4004210B4393700023C3607B
S315000013F0436A002BF0D080220021FFF755FEEBE771
S3150000140003218278114002290AD0C168056A0C7846
S31500001410EC709207920F9B1A8A180361C260DAE792
S315000014204FF60065C1680C882C43056AEC81F0E72D
S31500001430FFFFFEFF10B582B0EFF30383103B5BB2F4
S315000014401A0046F20001C032C4F200019200505860
S315000014501F4C20405050525840F6C8129B00C2F212
S3150000146000029C580323A2781340022B0DD0236A56
S315000014705979A369C9B2019183B9636A1BB1042280
S315000014802000FFF711FE02B010BD40F2FF11236AE3
S315000014901B8A1940A3690191002BEED09207920F87
S315000014A0606901A901F0CCFAA37862699B079B0FDA
S315000014B0D2186261A269D31AA361002BE3D1636AD1
S315000014C0002BE0D0012200212000FFF7EDFDDAE736
S315000014D0FFFFFEFF10B5EFF3038440F6C813103C80
S315000014E064B2C2F20003A200D0587B23026A91784C
S315000014F00B409370436A1BB102220021FFF7D4FD13
S31500001500230046F20002C033C4F200029B00995841
S315000015100248014099509B5810BDC046FFFFFEFF90
S3150000152070B5EFF3038440F6C813103C64B2C2F200
S315000015300003A200D058032382781340022B22D046
S31500001540036A5979C9B238221D792A40ED0602D5B7
S315000015501D7FED0714D538261D79B5431D71436AE5
S315000015600BB1FFF7A1FD230046F20002C033C4F21F
S3150000157000029B0099580748014099509B5870BD3E
S3150000158040252A43E7E740F2FF11036A1A8A114011
S31500001590D9E7C046FFFFFEFF002303600020704727
S315000015A0FF2010B540F600040B0A0840190109187F
S315000015B0C4F2040489000B5900209B07DB0F13704B
S315000015C010BDC0460023C4F204039C46090A490123
S315000015D061444B68002013807047C0460020C4F267
S315000015E0040084461800090A904300041340490188
S315000015F00343614400208B607047C046FF200123EF
S315000016000840834052B91B040022C4F204029446E7
S31500001610090A4901614400208B6070474FF6FF724A
S315000016201340F1E70020C4F2040084461800090ABA
S31500001630490110B561440C68104020439343984318
S315000016400860002010BDC0460023C4F204039C4677
S31500001650090A490161444B6800201B0C138070473E
S315000016600020C4F2040084460B0A5B0163445868F8
S31500001670FF231940FE3B8B40000C99B203405B1AD6
S3150000168059424B41002013707047C0460020C4F2F7
S31500001690040084461800090A9043000413404901D7
S315000016A0034361440020CB607047C0460B0A10B567
S315000016B05B01012A10D00022C4F204029446FF20E6
S315000016C08022014052028A406344DC682243120CA5
S315000016D012040020DA6010BD0020C4F20400844623
S315000016E0FF2001408A4011004FF6FF726344DC6818
S315000016F0114021430A40ECE7F0B5DE4657464E4618
S315000017004546E0B583B0EFF31082012383F31088DA
S3150000171040F6C413C2F2000301931B6833B940F6C6
S315000017200051C4F20401CB704033CB7001990B68B1
S3150000173001330B6082F3108803889A46BBB380237B
S3150000174040F600055B029946284B002240F2FF084E
S315000017509C464168C4F204050AE043461E40230144
S315000017609B1901329B0092B25851083192451ED006
S315000017704B468E880868340A1842EED043461E400F
S3150000178023019C19A700644600977F599B1927409F
S315000017903C00009F01327C51674607403C00009F99
S315000017A09B0092B27C51083158519245E0D1EFF33B
S315000017B01082012383F31088019B1B681BB10199DA
S315000017C00B68013B0B60019B1B6833B940F6005167
S315000017D0C4F20401CB708033CB7082F3108803B05F
S315000017E0F0BCBB46B246A946A046F0BDFFFFFEFFD1
S315000017F045F2542310B5C5F24F0303600800FFF706
S315000018007BFF002010BDC04610B50800FFF774FF2F
S31500001810002010BDF0B5EFF31084012383F3108888
S3150000182040F6C413C2F20003186830B940F60055FA
S31500001830C4F20405E8704030E8701868013018609A
S3150000184084F31088D00321D4FF24080A0C40010138
S3150000185040F600000919C4F2040089000A50EFF3AB
S315000018601082012181F31088196811B119680139B4
S3150000187019601B6833B940F60051C4F20401CB70FD
S315000018808033CB7082F310880020F0BDFF2440F631
S315000018900005080A0C4001010819C4F2040580007D
S315000018A04759034E3740164047514651D0E7C04688
S315000018B0FFFFFEFF0368828A00201A807047C04639
S315000018C0036810314900CB5A002013807047C04688
S315000018D070B5C56904000E0088B0A5B120222900A4
S315000018E0684601F0ADF820223100280001F0A8F882
S315000018F02800A3699847E06918B12022694601F0DB
S315000019009FF808B070BD0D00F2E7C04630B5010083
S3150000191089B0EFF3038340F6C812103B5BB2C2F204
S3150000192000029B009858EFF3038346F20002103B37
S315000019305BB2C033C4F200029B009C580A4D2C4097
S315000019409C509B586B466A46997043681B88138067
S3150000195000231372036A0193836913B16946FFF783
S31500001960B7FF09B030BDC046FFFFFEFFF0B5C64663
S3150000197090464EF20012FF240325CEF20002944652
S31500001980220040F200370540ED008901AA400C40D4
S31500001990AC4083089B006344DE5900B5964334434C
S315000019A0DC5140F6C81342468100C2F200035A5089
S315000019B0030046F20002C033C4F200029B009958AD
S315000019C00C4C214099509B58BFF35F8F1F22012377
S315000019D0024093404EF20012CEF20002944640F2CC
S315000019E080124009800060448350036080BCB84682
S315000019F0F0BDC046FFFFFEFFF0B54E464546DE464B
S31500001A0057464CF20002CB68E0B54E6983610B691C
S31500001A10C4F20502036200239446C3610B88416049
S31500001A205B02634403608B784A790C005B03110206
S31500001A300B433179050083B0890700D57CE040214E
S31500001A400B43F178002900D16BE040F2802003437C
S31500001A509BB240F2000CAB82022A00D170E0727891
S31500001A6020795201C003104337780190EFF31089B3
S31500001A70012282F3108846F6FC72C4F20402D06892
S31500001A8040F2100A80462088834650465946401A3E
S31500001A90010001208840010040468843D060D2689A
S31500001AA089F3108847F6FF512A680B401380634676
S31500001AB013826B469888D08117733379990747D478
S31500001AC08A21062053542056002803DB2A00217A57
S31500001AD0FFF74CFF07202056002803DB2A00617A17
S31500001AE0FFF744FF06203056002803DB2A00317A30
S31500001AF0FFF73CFF07203056002803DB2A00717AE7
S31500001B00FFF734FF00232B6144F243430020C5F264
S31500001B104123AB6003B0F0BCBB46B246A946A04623
S31500001B20F0BD002A00D093E748F2000213439BB2AF
S31500001B3040F2000CAB8292E740F240410B4380E753
S31500001B4042F6DC528900C0F20002525A944686E7F9
S31500001B5003210B43873153540120893900F086FA5B
S31500001B602A683379ACE7C046F0B5454657464E4637
S31500001B70DE46E0B505000F686A683800526983B032
S31500001B8001924A688C689046864BA44618401A40D3
S31500001B9023402C6886B2A68096B2A6829EB2268183
S31500001BA0120C1B0C060CE680E282638143463B4323
S31500001BB09846C02342469B051A4200D08CE0CB686B
S31500001BC0002B00D1E0E01A899246160545D540F271
S31500001BD0900C6646A2535E8940F29C0CB04666465F
S31500001BE04246A2539A8940F29E0C90466246464669
S31500001BF0A6521A6840F29408944692B2914642461A
S31500001C004E46A65262461201120D904640F29609C1
S31500001C1046464A46A6526246120F944640F292083B
S31500001C2066464246A6545A6840F29808944692B2CE
S31500001C30914642464E46A65262461201120D904603
S31500001C4040F29A0946464A46A6526246120F944602
S31500001C5040F2930866464246A6545246960525D457
S31500001C6090235246E2520A8A103BE252019BDB78ED
S31500001C7073B11F2326889E43002800D189E000F017
S31500001C8053FB1F36301A80B22080AB8A1843A882D5
S31500001C9044F243430020C5F24123EB602F6103B0B9
S31500001CA0F0BCBB46B246A946A046F0BD9A7C40F2BF
S31500001CB0A60894466646DA7C40F2A80C16434246CD
S31500001CC0A654DA89904662464646A6521B8A9C4628
S31500001CD0AA236246E252C3E74EF200030722C4F289
S31500001CE001031B6A40F6502B9A461B0E1340994679
S31500001CF0C2F2000B5B464E461B68B3405646324066
S31500001D00D34040F2E832B3FBF2F341F28832534358
S31500001D1044F24022C0F20F02B3FBF2F20132072A6C
S31500001D2035D380235B05994643464E4633409A4653
S31500001D3046464B461E420CD040F2DE0A5646D3B209
S31500001D40A35566464B4633405E1EB3410133FF330F
S31500001D509A4680239B05994643464E4633420CD00D
S31500001D6040F2DF084346D2B2E2546346334212D110
S31500001D70534640F2002213439A4653469BB263826F
S31500001D80CB68002B00D01EE740F2000A68E7072266
S31500001D90C7E7202075E7534640F2022213439A46CE
S31500001DA0EBE7C046FFFFFFCF10B50020FFF7AEFD03
S31500001DB010BDC046F0B5D6464F464646C0B588B0BB
S31500001DC0EFF3038440F6C813103C64B2C2F200037A
S31500001DD0A200D6586D4673685A69927952B2A242E9
S31500001DE02ED00B22AA701B8832682B80A623D35CC8
S31500001DF09B06980E1F281EDC2872AC210120535C1E
S31500001E0083435354336A6B60B3691BB129003000B6
S31500001E10FFF75EFD46F20003C034A400C4F20003DF
S31500001E20E25833490A40E250E35808B0E0BCBA46EB
S31500001E30B146A846F0BD0F230340033B2B72DCE7F7
S31500001E400A22AA701B889A322B8000232B723768CD
S31500001E50A033F95A40F2010C8BB29846A223F85AE5
S31500001E60BA5C83B29A460004D3B2120780184018AF
S31500001E70994643081F223BB16146400019405B0862
S31500001E800843013A002BF7D1904040B300F04CFADA
S31500001E90C3B20F2808DC0123424683409A4313004D
S31500001EA0A022BB522872ADE71B280ADC0F221A407B
S31500001EB00123934052469A431300A222BB52287232
S31500001EC0A0E70321012219408A4049469143A422F2
S31500001ED040B2B9541C2BE5D91F3B2B7292E7012364
S31500001EE04A469A431300A422BB542023F4E7C04673
S31500001EF0FFFFFEFF4EF20003262240F20C01C4F261
S31500001F000103985C1B6A8000C2F2000141585B0124
S31500001F105B0F40F65022D940C2F2000211607047B2
S31500001F204EF2000340F2FE324B49C4F2010370B593
S31500001F3099524CF20002002043F6C871C4F27E02A8
S31500001F40505440F20C0446F60042C2F20004C0F2BD
S31500001F50DC22226041F20022C0F27A02626048F27C
S31500001F60000242F60051A26022612622C0F231111F
S31500001F70E160995C1A6A890061585201520F40F675
S31500001F805025D14040F21342C2F200052960985410
S31500001F900921A222995440F28042995C002953D02B
S31500001FA04EF20003002240F28141C4F201035A546A
S31500001FB001395A54A0329A5CCAB136229A5C1AB9CF
S31500001FC03C215A5CD207FCD54EF20002A021C4F295
S31500001FD00102535CDB06D80F002BFADB50544EF29D
S31500001FE00002A021C4F20102535CDB06FCD44EF2CF
S31500001FF0000200213623C4F20102D1543C31535C65
S31500002000DB07FCD501213123D1544FF6C473C4F24A
S315000020107E03197040F20333002013622623D05446
S31500002020D05C136A800020585B015B0FD84040F2F9
S31500002030FE3328600948D0524CF2000343F6C872BA
S31500002040C4F27E03995470BD013140F2C4409954E4
S3150000205000F00CF8A4E7C04603A5FFFF00A5FFFFAC
S315000020607047C04601380028FCD1704740F6502220
S315000020704CF600234143C2F2000270B51468C3F661
S315000020809A330D00B3FBF4F4080040F2E832002363
S31500002090002100F067F931B9B0FBF4F0800808B10F
S315000020A0FFF7E0FF70BDA000B5FBF0F040F2E832AC
S315000020B00023002100F056F90029F0D0012040420B
S315000020C0FFF7D0FFEEE7C046F8B546F2000340F250
S315000020D0401240F6841500240127C4F200039E5ADC
S315000020E0C2F20005B6B23300E340E0B21F4202D0AE
S315000020F02B6803B1984701340435102CF3D146F20E
S31500002100000340F23012C4F200039E52F8BDC046EE
S3150000211046F200000023C4F2000042F68852C0F2E4
S3150000212000029A1811781A00C03292000133115039
S31500002130202BF2D17047C04670B5EFF31081012312
S3150000214083F3108840F648234000C2F200031A5A6F
S315000021501AB11A5A013A92B21A521B5A83B94EF25E
S31500002160000240F2FE3542F6E854C4F20102565B24
S31500002170054BC0F20004205A334383439BB25353AA
S3150000218081F3108870BDC04600A5FFFF70B5EFF360
S315000021901081012383F3108840F648224000C2F2E2
S315000021A00002135A83B94EF2000442F6E85540F293
S315000021B0FE36C4F20104C0F20005A35B2D5A2B4380
S315000021C04AF200552B43A353135A01339BB21352C1
S315000021D081F3108870BDC04600BE704710B500F090
S315000021E003F8FEF7F3FEFEE7F0B54EF6005340F2B5
S315000021F00005CEF20003C0F2000583B09D6000200A
S31500002200FEF7C8FEFFF78CFE6B460027DC1D277025
S3150000221001202378FFF7BAFFEFF31081012686F33A
S31500002220108846F6FC73C4F204039A683B480240E1
S315000022309A609A6881F3108840F60001C4F204019E
S315000022400A68D207D20F22700A68D207D20F22700C
S315000022500A68D207D20F2270EFF3108186F3108836
S3150000226080229868520502439A609B6881F3108821
S315000022700120FFF761FF0120FEF78CFE40F60053B8
S31500002280274AC4F200039F8026491A802A6841F231
S31500002290000051189960DA6046F2000240F22011FF
S315000022A0C4F20002505240F6542240F22000C2F21C
S315000022B00002C2F200009E800021121A00F0C9FB43
S315000022C040F2000040F20C0242F63461C2F2000015
S315000022D0C2F20002121AC0F2000100F0B1FB40F295
S315000022E0040540F20803C2F20005C2F200035B1BBC
S315000022F09E10002B05DD002408CD01349847A64228
S31500002300FADCFFF7F7FD0220FEF744FEFFF700FFB9
S315000023100020FFF7A5FE03B0F0BDC046FFFFFFEFAC
S3150000232000A5FFFF00FCFFFF1C2101231B049842B0
S3150000233001D3000C10391B0A984201D3000A083950
S315000023401B09984201D30009043902A2105C401807
S315000023507047C046040302020101010100000000AB
S3150000236000000000F0B54FF6FF75CE464746994689
S315000023702B0015400E0029000340140C80B5070001
S31500002380000C59434543634360435B190C0CE41846
S315000023908C46A54203D980235B0298464044230C11
S315000023A061461B1820044FF6FF740C4049467943DA
S315000023B07243C91800198918C0BCB946B046F0BDA9
S315000023C0F0B54F464646D646450044022D0EC0B5EA
S315000023D0640A0F1CC60F002D00D18FE0FF2D00D11F
S315000023E093E0802040F2000940F2000AE400C004B5
S315000023F004437F3D7802430A98467B001B0EFF0F7D
S31500002400002B00D171E0FF2B00D185E04246D000C1
S315000024108022D2040243904640F2000C7F3BED1826
S3150000242031004B467940681C0F2B1CD8764A9B001E
S31500002430D3589F4639004446E2465346022B0FD0F6
S31500002440032B00D1D8E0012B38D100200024C00591
S315000024502043C9070843E0BCBA46B146A846F0BDCA
S31500002460FF200024F3E74FF6FF724746260C43464B
S3150000247014403A4017001B0C674372435C435E43AB
S31500002480A4183B0C1B199A4203D980225202944687
S3150000249066444FF6FF741A043C4012199401671EF5
S315000024A0BC411B0C920E9B1914439B011C431B0140
S315000024B000D49BE0012362081C40144302007F32D3
S315000024C0002A64DD630704D00F232340042B00D0C9
S315000024D00434230103D502004C4B80321C40FE2AF3
S315000024E0BEDCA401640AD0B2B1E74346F3BB4A4658
S315000024F001331A43914640F2010C91E74CBB40F27E
S315000025000409002540F2010A74E7E4B940F208091B
S31500002510FF2540F2020A6DE74346FF3563B94A4696
S3150000252002231A43914640F2020C79E753463100E2
S31500002530022B00D084E793E74A4603231A439146C9
S3150000254040F2030C6CE740F20C09FF2540F2030A47
S3150000255050E72000FFF7E8FE7625431F6D429C40BA
S3150000256040F2000940F2000A2D1A43E74046FFF701
S31500002570DBFE4246431F9A402D1A904640F2000C5D
S31500002580763D4DE780240021FF20E4035FE7012329
S315000025909B1A1B2B00DD58E722009E30DA40844050
S315000025A01300621E94411C43630704D00F2323408B
S315000025B0042B00D0043463011AD50120002446E719
S315000025C08020C003044209D04346034206D1444654
S315000025D0044364023900FF20640A38E78020C00300
S315000025E0044364023100FF20640A30E7280065E7EF
S315000025F0A4010020640A2AE78020C0030443640281
S31500002600FF20640A23E7C046F02D0000FFFFFFF716
S31500002610F8B5CE46474643025B0A4E02DA009446B8
S31500002620720A914645004A0080B52D0E1F00C40F60
S31500002630120EC90FB609FF2A5BD0012041408C4219
S3150000264039D0A81A002859DD002A68D0FF2D00D1FC
S31500002650D7E08022D20416431B2800DCE7E00120E5
S315000026606346181A430100D4B3E080018709380095
S31500002670FFF75AFE05388740854200DCCAE02D1A6E
S31500002680B4483840430704D00F230340042B00D03E
S315000026900430430100D49FE06A1CFE2D00D18CE07B
S315000026A08001470AD2B2D0053843E4072043C0BCB4
S315000026B0B946B046F8BDA81A8046002845DD002A6E
S315000026C06FD0FF2D00D19CE08023DB041E434346E0
S315000026D01B2B00DCD0E001206044430179D5013595
S315000026E0FF2D6AD001239C4A03404008104018433E
S315000026F0C8E7FEB18C4224D02800FF38D0B3571B60
S31500002700002D00D09DE06346002B00D1DBE07B1E50
S31500002710012F00D10DE1FF2F71D01F0098E0002E90
S3150000272000D1A7E0421E012800D1E6E0FF2868D0CC
S31500002730100091E740F2010840464140A14200D016
S315000027407FE7FF2040428046A8444046C0B3511B65
S31500002750002D00D1ADE0FF2A00D1DEE080236046E7
S31500002760DB04184384461B2900DCD8E00120150051
S315000027708019B2E7FE206A1C104270D1002D00D0ED
S31500002780A5E06346002B00D1D8E00022002E00D140
S3150000279089E7981B430100D4E0E063460C00F01A79
S315000027A070E7002E00D1B6E00200013A012800D100
S315000027B09BE0FF2825D0904689E7FF22002772E795
S315000027C0FE206A1C104263D0FF2AF6D0150066442C
S315000027D07008430700D057E7C308FF2D11D05B02EE
S315000027E05F0AEAB25FE76246002A00D195E046B189
S315000027F08022D203134204D04846104201D10C0075
S315000028004B46002BD9D08027FF031F437F02FF22B0
S315000028107F0A48E720233A00451B38000135EA4085
S315000028205D1BA840431E9841002510432AE720233C
S315000028301B1A32009E40C2403000431E984110438E
S315000028400EE7FF2ADBD080236046DB04184384466C
S315000028501B2F56DD01200C001500301A02E76346D7
S315000028609F1B7B013DD4002F00D000E700240022EF
S31500002870002718E70500B0E7320043464146DA4034
S3150000288020235B1A9E403000431E9841104323E7E5
S31500002890002DA8D16346002B59D00022002E00D16E
S315000028A001E730006044430193D52A4B01351840B7
S315000028B08FE76346002B47D04B1E012915D0FF2911
S315000028C02BD019004FE70C004B463D0085E76246CA
S315000028D0002A8CD1002E92D180270024FF22FF03EC
S315000028E0E1E663460C00F71AC1E6300060440125B4
S315000028F0430100D46DE70225F4E663460125981BE3
S31500002900B0E6202364466046FC40DF1BB840431E09
S31500002910984120439FE705005FE74B4671E7202378
S3150000292065466046CD40591A8840431E9841284363
S315000029301DE763460C000125F01A93E6002E95D09C
S315000029400C004F460022AEE64B460D0045E74F46CB
S315000029500022A8E6FFFFFFFBFFFFFF7D002800D057
S3150000296037E7002400279EE641024200C30F490ACA
S315000029700020120E7E2A03DD9D2A02DD094A9818E0
S315000029807047802000040143952A07DC9620821AAE
S31500002990D1404842002BF3D10800F1E7963A914026
S315000029A0F7E7C046FFFFFF7FF8B598B1C317C61813
S315000029B05E40C40F3000FFF7B7FC9E2305001B1ACC
S315000029C0962B0FDC082801DD083DAE407602760A1C
S315000029D0D8B202E0002400200026C0053043E407F8
S315000029E02043F8BD992B0CDD05223100121AD14087
S315000029F00A00010030001B318840411E8841024315
S31500002A001600052D12DC31000C4F3940720709D033
S31500002A100F203040042805D004314A0102D59F23F7
S31500002A2039405B1B89014E0AD8B2D6E76A1F964029
S31500002A303100024F39407207F4D0E9E7FFFFFFFB90
S31500002A40002310B59A4200D110BDCC5CC4540133AA
S31500002A50F8E703008218934200D1704719700133DA
S31500002A60F9E7FFFF4275696C742077697468205234
S31500002A70656E6573617320416476616E636564207B
S31500002A80466C657869626C6520536F66747761720F
S31500002A9065205061636B6167652076657273696F47
S31500002AA06E20342E322E3000342E322E30000000AE
S31500002AB000000204F8B5C046F8BC08BC9E46704744
S31500002AC0F8B5C046F8BC08BC9E4670475465726DA2
S31500002AD0696E616C00FFFFFF0000000000005454A7
S31500002AE0522052454747455300FFFFFFA209000009
S31500002AF07A0900007A0900007A0900007A090000C4
S31500002B007A0900007A0900007A0900007A090000B3
S31500002B107A0900007A090000C80A00002C0A0000A1
S31500002B207A0900007A0900007A0900007A09000093
S31500002B307A0900007A0900007A0900007A09000083
S31500002B407A0900007A0900007A0900000A0A0000E2
S31500002B507A0900007A090000E20900007A090000FB
S31500002B60C20900007A0900007A090000A2090000E3
S31500002B7030313233343536373839414243444546AD
S31500002B80257300FF257320256C750D0A00FFFFFFD6
S31500002B906975686F6975680D0A000000675F737272
S31500002BA063203A2025730D0A0000000067646573F0
S31500002BB074203A2025730D0A000000002A2A2052AC
S31500002BC05F4144435F5363616E43666720415049EA
S31500002BD0206661696C6564202A2A200D0A000000BF
S31500002BE00D0A414443205374617274656420536333
S31500002BF0616E0D0A000000002A2A20525F414443FC
S31500002C005F5363616E53746172742041504920664C
S31500002C1061696C6564202A2A200D0A002A2A20523E
S31500002C205F4144435F5265616420415049206661BB
S31500002C30696C6564202A2A200D0A00000D0A546872
S31500002C406520566F6C746167652052656164696EB4
S31500002C50672066726F6D204144433A200D0A0000DA
S31500002C600D0A41444320696E70757420766F6C744A
S31500002C70616765207769746820737472696E673A54
S31500002C802025730D0A00FFFF28090020002D0000F3
S31500002C90A82D000000000200000004DF01FF000074
S31500002CA0CD0C000000000000AC2C0000000102006A
S31500002CB0010006DF01FFFFFF010000000000000029
S31500002CC000000000000000000000001803020000E1
S31500002CD002080201020A02030000000000000000D0
S31500002CE0290F000000000000EC2C0000000100008D
S31500002CF0000000200F00FFFF00000000FFFF0000A3
S31500002D0010000000082D00000080000000000000F8
S31500002D100400000002000000008000000A0000001D
S31500002D20008000000B000000000001000801000008
S31500002D300400000006020000040000000702000074
S31500002D400400000008020000000000000D02000060
S31500002D500000010000030000040000000004000061
S31500002D600400000001040000040000000704000045
S31500002D700000010508040000000001050904000028
S31500002D800400000000050000001D001A07000500F1
S31500002D901F001C00000000000000000000000000F2
S31500002DA00000000000000000F11700009915000067
S31500002DB0091800001518000061160000AD16000085
S31500002DC0A1150000FD15000025160000491600009B
S31500002DD08D160000C5150000DD1500000A0900006B
S31500002DE00A0900003F0B0000010002000800100065
S31500002DF06624000036240000362400003424000037
S31500002E003A2400003A2400008425000034240000FF
S31500002E103A240000842500003A24000034240000EF
S31500002E202C2500002C2500002C250000C0250000C4
S30900002E300000000098
S31100002E34080007002D0500000105000045
S31501010018FFFFFFFFFFFFFFFFFFFFFFFFFFFFFFFFE0
S31101010028FFFFFFFFFFFFFFFFFFFFFFFFD0
S705000021DDFC
