S01000004C6974746C6546532E737265630D
S315000000001817002021400000073E00003140000084
S315000000103140000031400000314000003140000016
S315000000200000000000000000000000003140000059
S315000000303140000000000000314000003140000067
S3150000004000000000000000000000000000000000AA
S31500000050932B0000E92B00006F2C0000112D0000EF
S31500000060000000000000000000000000000000008A
S31500000070000000000000000000000000000000007A
S31500000080000000000000000000000000000000006A
S31500000090000000000000000000000000000000005A
S31500000400FFFFFFFFDFCEFFFFFCFF0F00FFFF0F0028
S31500000410FCFF0F00FFFF0F00FCFF0F00FFFF0F00A8
S31500000420FCFF0F20FFFF0F20FCFF7F40FFFF7F40F8
S31500000430FCFF0D40FFFF0D40FFFFFFFFFFFFFFFF2B
S31500000440FFFFFFFFFFFFFFFFFFFFFFFFFFFFFFFFB6
S31500000450FFFFFFFFFFFFFFFFFFFFFFFFFFFFFFFFA6
S31500000460FFFFFFFFFFFFFFFFFFFFFFFFFFFFFFFF96
S31500000470FFFFFFFFFFFFFFFFFFFFFFFFFFFFFFFF86
S31500000480FFFFFFFFFFFFFFFFFFFFFFFFFFFFFFFF76
S31500000490FFFFFFFFFFFFFFFFFFFFFFFFFFFFFFFF66
S315000004A0FFFFFFFFFFFFFFFFFFFFFFFFFFFFFFFF56
S315000004B0FFFFFFFFFFFFFFFFFFFFFFFFFFFFFFFF46
S315000004C0FFFFFFFFFFFFFFFFFFFFFFFFFFFFFFFF36
S315000004D0FFFFFFFFFFFFFFFFFFFFFFFFFFFFFFFF26
S315000004E0FFFFFFFFFFFFFFFFFFFFFFFFFFFFFFFF16
S315000004F0FFFFFFFFFFFFFFFFFFFFFFFFFFFFFFFF06
S3150000050040F2A80040F2A803C2F20000C2F20003C3
S3150000051010B5834205D040F20003C0F2000303B1D8
S31500000520984710BD40F2A80040F2A803C2F20000AE
S31500000530C2F200031B1A9A10D90F8918491010B578
S3150000054029B140F20003C0F2000303B1984710BD81
S3150000055010B540F2C004C2F20004237873B9FFF765
S31500000560CFFF40F20003C0F200032BB144F658203F
S31500000570C0F2000000E000BF0123237010BDC0469A
S3150000058040F20003C0F2000310B54BB140F2C401C3
S3150000059044F65820C2F20001C0F2000000E000BF9D
S315000005A0FFF7C0FF10BDC04680B582B000AF40F275
S315000005B0DC03C2F200033B603B68A822002118005E
S315000005C003F08FFE3B6803221A613B6803225A61DF
S315000005D03A6844F25C33C0F2000393613A6840F231
S315000005E08413C2F20003D3613B6840F200421A62F0
S315000005F03B6800229A623B6800225A623B680022EE
S31500000600DA623A6844F25C33C0F2000313663A6871
S3150000061040F28453C2F2000353663B6810229A6686
S315000006203B6800221A673B680022DA663B680022B4
S315000006305A67BFF35F8F00237B600FE07B680F2252
S31500000640D21A44F26833C0F2000399563A687B68BE
S31500000650D3180A1C1A707B6801337B607B680F2BEA
S31500000660ECD9BFF35F8FC046BD4602B080BD80B5F2
S315000006708AB000AFF860B9607A6000233B62FB681D
S31500000680DB68FB61FB681B69BB61BA69FB699A425F
S3150000069005D9BA69FB69D31A013B7B6207E0FB689F
S315000006A09A68B969FB69CB1AD318013B7B62FB6870
S315000006B09A68FB69D21A7B6A934200D913007B625F
S315000006C07A6A7B68934200D913007B62FB685A689A
S315000006D0FB69D3187B617A6AB9687B69180003F0F5
S315000006E0F7FD3A6A7B6AD3183B62BA687B6AD3180D
S315000006F0BB607A687B6AD31A7B60FA697B6AD31817
S31500000700FB61FB689B68FA699A4201D10023FB6191
S31500000710BFF35F8FFB68FA69DA607B68002BB1D1A3
S315000007203B6A1800BD460AB080BD80B588B000AFF0
S31500000730F860B9607A60FB68DB68FB61FB689A6801
S31500000740FB69D31ABB61BA697B689A4212D9FB6806
S315000007505A68FB69D3183B617A68B9683B69180027
S3150000076003F0B6FDBFF35F8FFA697B68D218FB68AA
S31500000770DA6020E0BB697B61FB685A68FB69D318C5
S315000007803B617A69B9683B69180003F0A1FD7A6894
S31500000790BB69D31A7B61FB685B683B61BA68BB695E
S315000007A0D1187A693B69180003F092FDBFF35F8F99
S315000007B0FB687A69DA60C046BD4608B080BD80B580
S315000007C086B000AF78607B681B693B617B68DB683D
S315000007D0FB603A69FB689A4208D87B689A68FB68AE
S315000007E0D21A3B69D318013B7B6104E03A69FB6886
S315000007F0D31A013B7B617B691800BD4606B080BDFC
S3150000080080B588B000AFF860B9607A60BB68BB613C
S31500000810FB685A1C13005B009B18DB0040F2DC02ED
S31500000820C2F200029B187B617B695B69022B2DD0AB
S3150000083035D813B1012B16D031E07B691800FFF7CC
S31500000840BEFF03003B613A697B689A4202D20023ED
S31500000850FB6127E07B68FB617A68B9697B691800F0
S31500000860FFF763FF1EE07B691800FFF7A8FF030090
S315000008703B613A697B68934200D91300FB61FA69D0
S31500000880B9697B691800FFF750FF0BE07A68B96910
S315000008907B691800FFF7EBFE0300FB6102E0002313
S315000008A0FB61C046FB691800BD4608B080BD80B537
S315000008B088B000AFF860B9607A6040F2DC03C2F23B
S315000008C00003FB61FB691B785BB2532B01D0FFF77A
S315000008D06BFEEFF31083012181F31088BB617A6808
S315000008E0B968FB681800FFF78BFF03007B61BB69E3
S315000008F083F310887B691800BD4608B080BD80B5BB
S3150000090084B000AF78600A00FB1C1A707B689B6895
S31500000910FB60FB685A1C7B685B689A420FD87B6851
S315000009201A68FB68D318FA1C12781A70FB685A1CEE
S315000009307B689A607B68DB685A1C7B68DA607B6838
S315000009409A687B685B689A4215D17B6818697B68F0
S3150000095019687B689B681A00FFF7A9FF02007B688D
S315000009609B689A4204D07B6801225242DA6002E018
S315000009707B6800229A60C046BD4604B080BD80B543
S315000009808AB000AFF860B9607A603B60BB683B62D2
S3150000099001237B620123FB6107E03A6A7B68B2FBB5
S315000009A0F3F33B62FB690133FB613A6A7B689A4267
S315000009B0F3D23A68FB699A4201D93B68FB617B6BCB
S315000009C0012213404BBB3B6B3BB37B6B02221340B4
S315000009D033B13B6823B91B23FB1830221A7003E09E
S315000009E01B23FB1820221A700FE03B6B013B3B6375
S315000009F01B23FB1800229A56FB6811001800FFF70C
S31500000A007EFFFB68DB68002B06DB3B6B2BB1FA69CC
S31500000A103B6B9A42E9D300E0C046FB68DB68002BDB
S31500000A2056DB3B68012B03D93B68013B3B6009E081
S31500000A30BA687B6AB2FBF3F37B617A697B689A4298
S31500000A4000D204E07B6A7A6853437B62E9E7BA68BE
S31500000A507B6AB2FBF3F37B617B697A6A5343BA68BC
S31500000A60D31ABB6044F20043C0F200037A699B18B4
S31500000A7000229A56FB6811001800FFF740FFFB683A
S31500000A80DB68002B08DB7A6A7B68B2FBF3F37B62D8
S31500000A907B6A002BDBD100E0C0467B6B0122134052
S31500000AA0B3B13B6BA3B10BE03B6B013B3B63FB6814
S31500000AB020211800FFF723FFFB68DB68002B06DB0D
S31500000AC03B6B2BB1FA693B6B9A42EDD300E0C04613
S31500000AD0C046BD460AB080BD90B589B002AFF86089
S31500000AE0B9607A603B60BB68DA179B1853403B617C
S31500000AF001237B6107E07B683A6992FBF3F33B6174
S31500000B007B6901337B617B683A699A42F3DA3A681A
S31500000B107B699A4201D93B687B61BB6A4BB1BB6872
S31500000B20002B03DBFB6A0422134013B1BB6A013BB3
S31500000B30BB62FB6A022213400BB13B68D3B1FB6A6E
S31500000B4001221340B3B9BB6AA3B10BE0BB6A013BF8
S31500000B50BB62FB6820211800FFF7D1FEFB68DB684B
S31500000B60002B06DBBB6A2BB17A69BB6A9A42EDD3CE
S31500000B7000E0C046FB68DB68002B48DBBB68002B47
S31500000B8008DABB685B42BB60FB682D211800FFF7E3
S31500000B90B6FE08E0FB6A0422134023B1FB682B2152
S31500000BA01800FFF7ACFEFB68DB68002B2FDBFB6A47
S31500000BB002221340E3B1FB6A01221340C3B93B682A
S31500000BC0B3B9BB6AA3B10BE0BB6A013BBB62FB686E
S31500000BD030211800FFF793FEFB68DB68002B06DB6D
S31500000BE0BB6A2BB17A69BB6A9A42EDD300E0C04674
S31500000BF0FB68DB68002B0ADBB9683C687A68F86832
S31500000C00FB6A0193BB6A00932300FFF7B8FEC04658
S31500000C10BD4607B090BDFFFF90B5A3B002AFF86028
S31500000C20B9607A6050217B181022BA181A607B18B6
S31500000C3040225A607B1800229A607B18FA681A6173
S31500000C407B180022DA607F217B18BA6812781A7046
S31500000C50BB680133BB607B181B785BB2002B00D1ED
S31500000C6066E17B181B785BB2252B00D04FE1002391
S31500000C703B670123BB677F217B18BA6812781A701D
S31500000C807B181B785BB2302B10D027DC2D2B05D0C0
S31500000C9024DC232B1AD02B2B10D01FE03B6F012214
S31500000CA013433B67BB680133BB601AE03B6F02220C
S31500000CB013433B67BB680133BB6012E03B6F042202
S31500000CC013433B67BB680133BB600AE03B6F0822F6
S31500000CD013433B67BB680133BB6002E00023BB677D
S31500000CE0C046BB6F002BC6D10023FB667F217B1855
S31500000CF0BA6812781A707B181B785BB22F2B14DD3A
S31500000D007B181B785BB2392B0FDCBB680133BB60E9
S31500000D10FA6E13009B009B185B001A007B181B7869
S31500000D205BB2D318303BFB66E0E700237B677F218D
S31500000D307B18BA6812781A707B181B785BB22E2B58
S31500000D4021D1BB680133BB607F217B18BA6812785A
S31500000D501A707B181B785BB22F2B14DD7B181B785F
S31500000D605BB2392B0FDCBB680133BB607A6F1300B3
S31500000D709B009B185B001A007B181B785BB2D3188C
S31500000D80303B7B67E0E77F23FB18BA6812781A705E
S31500000D907F22BB181B785BB26C2B04D0BB181B7868
S31500000DA05BB2682B08D1BB680133BB607F23FB189D
S31500000DB0BA6812781A70EBE77F23FB181B785BB2D0
S31500000DC0252B00D197E000DA9CE0782B00DD99E036
S31500000DD0582B00DA96E0583B202B00D992E09A0077
S31500000DE0634BD3181B689F467B681B68191D7A687E
S31500000DF011601B68BB6767217B18BA6F1A707B1876
S31500000E0000229A565023FB1811001800FFF777FDB1
S31500000E1079E07B681B68191D7A6811601B68BB67DF
S31500000E207A6FB96F5023F8183B6F0193FB6E0093EE
S31500000E3013000A22FFF750FE65E07B681B68191D48
S31500000E407A6811601B68BB67B96F7A6F5023F81810
S31500000E503B6F0193FB6E009313000A22FFF78FFD91
S31500000E6051E07B681B68191D7A6811601B68BB67B7
S31500000E70B96F7A6F5023F8183B6F0193FB6E00939E
S31500000E8013001022FFF77BFD3DE07B681B68191DF0
S31500000E907A6811601B68BB667F217B18BA6E127870
S31500000EA01A70BB6E0133BB667B181B785BB26BB1E5
S31500000EB07B1800229A5650243B1911001800FFF7A0
S31500000EC01EFD3B19DB68002BE6DA1CE0C0461AE083
S31500000ED07B681B68191D7A6811601B68BB67B96F50
S31500000EE05023F818002301930823009308231022A7
S31500000EF0FFF745FD07E05023FB1825211800FFF7F3
S31500000F00FEFC00E0C046BB680133BB6009E07F23FE
S31500000F10FB1800229A565023FB1811001800FFF701
S31500000F20EEFC5023FB18DB68002B00DB8BE600E0B1
S31500000F30C0465022BB18DB68002B12DDBB189B682D
S31500000F403BB1BB189A681023F918FB681800FFF725
S31500000F50AEFC50217B18DA687B189B68D2187B1888
S31500000F60DA605023FB18DB681800BD4621B090BD3F
S31500000F707C4300000EB480B585B000AF78602023B6
S31500000F80FB18BB600823FA18F9697B681800FFF79D
S31500000F9043FE0300FB60FB681800BD4605B080BC3D
S31500000FA008BC03B0184780B500AF40F2F053C2F258
S31500000FB00003002240F20131180002F06DF8C0462D
S31500000FC0BD4680BD80B500AF40F2F053C2F20003CB
S31500000FD0012240F20131180002F05EF8C046BD461B
S31500000FE080BD80B582B000AF786039603A687968B4
S31500000FF040F20860C2F20000072301F011F9020076
S3150000100040F2E853C2F200031A60C04640F2EC53C5
S31500001010C2F200031B78DBB201225340DBB2002B85
S31500001020F4D140F2EC53C2F2000300221A700121FF
S3150000103040F22C1002F06AFEC046BD4602B080BDEA
S3150000104080B582B000AF786039603A68796840F25E
S315000010500860C2F20000072301F0FAF8020040F22D
S31500001060E853C2F200031A60C04640F2EC53C2F2E3
S3150000107000031B78DBB201225340DBB2002BF4D114
S3150000108040F2EC53C2F2000300221A70012140F232
S315000010902C1002F03BFEC046BD4602B080BD80B5B6
S315000010A082B000AF78607B680121180002F02EFE46
S315000010B0C046BD4602B080BD90B583B000AF40F2D9
S315000010C09853C2F2000340F6A772C0F200029A607B
S315000010D040F29853C2F2000340F6C572C0F2000215
S315000010E0DA6040F29853C2F2000341F29F02C0F266
S315000010F000021A6140F29853C2F2000340F6E3720E
S31500001100C0F200025A6040F29853C2F2000341F264
S315000011104102C0F200021A6040F2F053C2F200032C
S31500001120012240F20231180001F0B6FFFFF74AFF34
S31500001130FC1D40F29853C2F20003180000F084FA36
S3150000114003002370FB1D1B780BB1C046FDE7C046AC
S31500001150BD4603B090BD80B592B000AF00237B645E
S315000011607A6C391D40F29850C2F20000402300F01C
S315000011709AFDC046BD4612B080BD80B598B000AF9E
S3150000118042F20053FB65FA6D390040F29850C2F204
S3150000119000005A2300F087FDC046BD4618B080BD4A
S315000011A080B582B000AF00237B6040F6C4133B607D
S315000011B040F29850C2F2000004230022002100F001
S315000011C07FFC0300072B08D140F29853C2F20003BC
S315000011D000220021180000F08BFB7A68390040F2EB
S315000011E09850C2F20000042300F091FCC046BD46B0
S315000011F002B080BD80B584B000AF42F20053FB6000
S315000012007D237B6040F29853C2F200031B8D1A00C7
S31500001210FB68B3FBF2F3BB60B96840F29850C2F2C8
S3150000122000000423002200F04BFC0300072B08D12A
S31500001230F96840F29853C2F200030022180000F049
S3150000124057FBFA68391D40F29850C2F20000042399
S3150000125000F05DFCC046BD4604B080BD80B582B0DE
S3150000126000AF78607B681B79012B05D140F2EC5307
S31500001270C2F2000301221A70C046BD4602B080BD0C
S3150000128080B500AF40F2E831C82002F03FFD44F6D9
S315000012907412C0F2000240F20863C2F200031100A9
S315000012A0180000F07DFF40F2E831C82002F02EFD64
S315000012B040F20860C2F2000007230122002100F07C
S315000012C0C7FF40F2E831C82002F020FDFFF7F4FE28
S315000012D0FFF741FF40F2E831C82002F017FDFFF7A3
S315000012E04CFF40F2E831C82002F010FDFFF758FF2E
S315000012F040F2E831C82002F009FDFFF77BFF40F21B
S31500001300E831C82002F002FDFFF725FF40F2E83180
S31500001310C82002F0FBFCFFF730FF40F2E831C8209E
S3150000132002F0F4FC40F20863C2F20003180000F079
S31500001330A7FFC046BD4680BD80B582B000AF0200A3
S31500001340FB1D1A70FB1D1B7833B94CF20003C4F267
S315000013507E03902201219954FB1D1B78022B0CD190
S3150000136044F62C13C0F200035A6840F2F053C2F25E
S3150000137000031100180001F0C9FDC046BD4602B0C9
S3150000138080BD80B582B000AF78607B689B68984767
S31500001390C046BD4602B080BD80B582B000AF786061
S315000013A07B68DB689847C046BD4602B080BD80B505
S315000013B084B000AFF860B9607A60FB681B68796832
S315000013C0BA6810009847C046BD4604B080BD80B5D7
S315000013D084B000AFF860B9607A60FB685B687968D2
S315000013E0BA6810009847C046BD4604B080BD80B5B7
S315000013F082B000AF786039607B681B693A6810007C
S315000014009847C046BD4602B080BD90B585B000AFD6
S3150000141078600F243B199F221A700023BB607B68FB
S315000014201800FFF7B9FF7B681800FFF7AAFF391904
S315000014307B6801221800FFF7BAFF0823F9187B68BA
S3150000144003221800FFF7C3FF7B681800FFF7A4FF0D
S31500001450BB681800BD4605B090BD90B589B000AF19
S3150000146078601F243B194B221A70002200233A6130
S315000014707B6101235B42FB607B681800FFF781FFFD
S3150000148039197B6801221800FFF791FF0C23F91820
S315000014907B6804221800FFF78AFF1023F9187B687F
S315000014A008221800FFF793FF7B681800FFF774FF08
S315000014B03A697B6910001900BD4609B090BD90B528
S315000014C085B000AF78600F243B1906221A707B683E
S315000014D01800FFF756FF39197B6801221800FFF73D
S315000014E066FF7B681800FFF757FFC046BD4605B08C
S315000014F090BD90B585B000AF78600A00FB1C1A70ED
S315000015000B23FB1800221A70FB1C1B78022B14D02D
S315000015101BDC13B1012B08D017E00A23FB180522A8
S315000015201A707B684233FB6011E00A23FB183522F0
S315000015301A707B684233FB6009E00A23FB18152208
S315000015401A707B684233FB6001E0FF231CE07B6876
S315000015501800FFF716FF0A23F9187B680122180006
S31500001560FFF725FF0B2439197B6801221800FFF7C6
S315000015702EFF7B681800FFF70FFF21007B181A78F3
S31500001580FB681A707B181B781800BD4605B090BD25
S3150000159090B585B000AF786039600F243B190522FD
S315000015A01A703A6813009B009B185B003B607B68CF
S315000015B01800FFF7E6FE39197B6801221800FFF7CD
S315000015C0F6FE7B68423319007B6801221800FFF79C
S315000015D0FEFE7B6864211800FFF709FF3B68643B49
S315000015E03B607B6842229B5C1A000123134013B1C7
S315000015F03B68002BE5D17B681800FFF7CDFE3B6802
S315000016000BB9012300E000231800BD4605B090BDCC
S3150000161080B584B000AF786039600023FB600AE0D3
S315000016207A68FB68D3181B78FF2B01D0072307E0E5
S31500001630FB680133FB60FA683B689A42F0D30023EB
S315000016401800BD4604B080BD80B584B000AF786098
S315000016500F23FB18AB221A707B6873B17B689B68FB
S315000016605BB17B68DB6843B17B681B692BB17B6828
S315000016705B6813B17B681B686BB944F62012C0F235
S31500001680000244F21043C0F2000319000020FFF7E5
S3150000169071FC022323E17B6840229B5A4CF6FE72C2
S315000016A0934209D144F23C43C0F2000319000020E2
S315000016B0FFF760FC002312E17B681800FFF76CFE61
S315000016C07B6864211800FFF792FE7B6845220021A3
S315000016D099547B684A22002199547B681800FFF7C9
S315000016E050FE0F23F9187B6801221800FFF75FFEF2
S315000016F07B681800FFF750FE7B681800FFF785FE31
S3150000170002007B681A627B681B6A23B17B681B6ACE
S31500001710754A934209D144F26443C0F200031900AA
S315000017200020FFF727FC0323D9E07B681B6A18001B
S3150000173000F07AFB030019007B68462299547B6807
S315000017401B6A180000F07AFB030019007B68482228
S3150000175099527B6848229B5A4FF6FF72934209D1F1
S3150000176044F28443C0F2000319000020FFF702FC94
S315000017700423B4E07B681800FFF76FFE02000B003D
S3150000178079688A61CB617B681B6A180000F079FB77
S3150000179002007B68DA637B6840F200121A857B6878
S315000017A041F200021A867B68802252029A637B68A5
S315000017B0DB6B1A017B685A637B685B6B7A68128EF7
S315000017C053437A68128DB3FBF2F27B68DA627B6868
S315000017D05B6B7A68128E5A437B685A627B6800217B
S315000017E01800FFF786FE7B6801211800FFF781FECF
S315000017F07B6802211800FFF77CFE7B6840223B498C
S31500001800995244F2F843C0F2000319000020FFF792
S31500001810B1FB7B681A6A44F21C53C0F2000319003C
S315000018200020FFF7A7FB7B689A69DB6944F2345115
S31500001830C0F200010020FFF79DFB7B681B8D1A009C
S3150000184044F25053C0F2000319000020FFF792FB48
S315000018507B681B8E1A0044F26C53C0F20003190019
S315000018600020FFF787FB7B689A6B44F28853C0F22F
S31500001870000319000020FFF77DFB7B68DA6A44F25B
S31500001880A453C0F2000319000020FFF773FB7B6826
S315000018905A6B44F2C053C0F2000319000020FFF750
S315000018A069FB7B68DA6B44F2DC53C0F20003190073
S315000018B00020FFF75FFB7B685B6A9A0A44F2F853E5
S315000018C0C0F2000319000020FFF754FB44F2106336
S315000018D0C0F2000319000020FFF74CFB002318009C
S315000018E0BD4604B080BDC046FFFFFF00FECFFFFF30
S315000018F0B0B588B000AFF860B960FB1D1A70FB6820
S315000019000BB902238CE0FB6840229B5A4CF6FE7210
S31500001910934201D0062383E0FB1D1B78022B2AD0BD
S315000019203CDC13B1012B13D038E0BA6844F2BC6337
S31500001930C0F2000319000020FFF71CFB1423FB185C
S3150000194020221A7041F68023C0F20603FB6125E0CF
S31500001950BA6844F2E063C0F2000319000020FFF702
S3150000196009FB1423FB1852221A7046F60023C0F214
S315000019701803FB6112E0BA6844F20873C0F2000370
S3150000198019000020FFF7F6FA1423FB18D8221A7064
S3150000199048F28043C0F21E03FB61C046BB681B0CC5
S315000019A0DAB214217B185A70BB681B0ADAB27B18AC
S315000019B09A70BB68DAB20C007B18DA70FB68180004
S315000019C0FFF77DFDFB681800FFF7DBFC3919FB68A4
S315000019D004221800FFF7EBFCFB681800FFF7DCFC9D
S315000019E01B257C19FA69FB6811001800FFF7D0FD6A
S315000019F0030023707B191B783BB144F29463C0F259
S31500001A00000319000020FFF7B5FA44F23073C0F264
S31500001A10000319000020FFF7ADFA1B23FB181B7803
S31500001A201800BD4608B0B0BD80B594B000AFF860F0
S31500001A30B9607A60FB680BB902233DE0FB6840227F
S31500001A409B5A4CF6FE72934201D0062334E0BB68E3
S31500001A507A6844F23871C0F200010020FFF78AFA72
S31500001A601EE0BB684033BB607B683F2B03D97B68B5
S31500001A70403B7B6001E000237B601023FB18402184
S31500001A801800FFF7C5FD0300072B09D144F26C735C
S31500001A90C0F2000319000020FFF76CFA07230BE0E1
S31500001AA07B68002BDDD144F28C73C0F20003190071
S31500001AB00020FFF75FFA00231800BD4614B080BD72
S31500001AC080B586B000AFF860B9607A603B60FB68AD
S31500001AD00BB9022317E0FB6840229B5A4CF6FE72B4
S31500001AE0934201D006230EE0FB681B8D1A00BB68EB
S31500001AF053437A68D3187B613A687969FB681800A2
S31500001B00FFF792FF03001800BD4606B080BD90B5F2
S31500001B1089B000AFF860B9607A603B60FB680BB9CA
S31500001B200223BCE0FB6840229B5A4CF6FE729342AD
S31500001B3001D00623B3E03B684BB944F2A073C0F270
S31500001B40000319000020FFF715FA0223A7E07B68BF
S31500001B503A6844F2D071C0F200010020FFF70AFA99
S31500001B6044F2F873C0F2000319000020FFF702FAEE
S31500001B7044F61803C0F2000319000020FFF7FAF933
S31500001B800023BB6126E0BB690F22134093B944F6DC
S31500001B905803C0F2000319000020FFF7EBF97A683A
S31500001BA0BB69D21844F65C03C0F20003190000209A
S31500001BB0FFF7E0F9BA68BB69D3181B781A0044F638
S31500001BC06803C0F2000319000020FFF7D3F9BB69D0
S31500001BD00133BB61BA693B689A42D4D344F67003B9
S31500001BE0C0F2000319000020FFF7C4F9FB681B8D43
S31500001BF01A007B68B3FBF2F14A439A1A3B68D31882
S31500001C00FA68128D934203D9FB681B8DFB6101E0D4
S31500001C103B68FB61FB681800FFF751FC14217B1839
S31500001C2002221A707B681B0CDAB27B185A707B682A
S31500001C301B0ADAB27B189A707B68DAB20C007B1842
S31500001C40DA70FB681800FFF79CFB3919FB68042261
S31500001C501800FFF7ACFBFA69B968FB681800FFF7D4
S31500001C60A6FBFB681800FFF797FBFB6842F21071B2
S31500001C701800FFF78DFCBA68FB69D318BB603A6899
S31500001C80FB69D31A3B603B68002BAFD144F6B00327
S31500001C90C0F2000319000020FFF76CF900231800BA
S31500001CA0BD4609B090BD90B58BB000AFF860B96085
S31500001CB07A603B60FB680BB90223B1E0FB68402207
S31500001CC09B5A4CF6FE72934201D00623A8E03B686D
S31500001CD00BB90223A4E0BB68FB613B68BB617B6870
S31500001CE03A6844F6C001C0F200010020FFF742F94D
S31500001CF0FB681B8D1A007B68B3FBF2F14A439A1A04
S31500001D003B68D318FA68128D934203D9FB681B8D82
S31500001D107B6201E03B687B6210217B180B221A7004
S31500001D207B681B0CDAB27B185A707B681B0ADAB226
S31500001D307B189A707B68DAB27B18DA700C007B1815
S31500001D4000221A71FB681800FFF71BFB3919FB68A4
S31500001D5005221800FFF72BFB7A6AB968FB681800A2
S31500001D60FFF735FBFB681800FFF716FBBA687B6ABE
S31500001D70D318BB603A687B6AD31A3B603B68002B7A
S31500001D80B6D144F6E803C0F2000319000020FFF7BD
S31500001D90F1F844F61803C0F2000319000020FFF71B
S31500001DA0E9F800233B6226E03B6A0F22134093B911
S31500001DB044F65803C0F2000319000020FFF7DAF8D2
S31500001DC07A683B6AD21844F65C03C0F20003190035
S31500001DD00020FFF7CFF8FA693B6AD3181B781A0080
S31500001DE044F66803C0F2000319000020FFF7C2F8AA
S31500001DF03B6A01333B623A6ABB699A42D4D344F6E2
S31500001E007003C0F2000319000020FFF7B3F844F690
S31500001E100413C0F2000319000020FFF7ABF80023FB
S31500001E201800BD460BB090BD80B582B000AF78609B
S31500001E307B68DBB21800BD4602B080BDB0B584B089
S31500001E4000AF78600F257C197B681800FFF7ECFF60
S31500001E50030023707B191B78C22B04D0EF2B09D00B
S31500001E604FF6FF7309E07B681B0C9BB2FF22134001
S31500001E709BB202E07B681B0A9BB21800BD4604B009
S31500001E80B0BDB0B586B000AF78600F257C197B6811
S31500001E901800FFF7C9FF030023707B191B78EF2B8F
S31500001EA007D003DC852B04D0C22B02D000233B6174
S31500001EB027E07B681A0C0E217B181A707B187A189B
S31500001EC01278113A1A707B187A18127852421A70E0
S31500001ED002233B611723FB1800221A7008E03B69B6
S31500001EE05B003B6117217B181A787B1801321A7048
S31500001EF01723FA180E23FB1812781B789A42EED392
S31500001F00C0463B691800BD4606B0B0BD80B500AFFF
S31500001F10FFF7B6F900231800BD4680BD80B582B034
S31500001F2000AFEFF303837B607B683B603B001B885D
S31500001F30DB05DB0D9BB2DBB2103BDBB25BB21800FC
S31500001F40BD4602B080BD80B582B000AF02003960E8
S31500001F50FB1D1A70FB1D00229A5640F28863C2F2DE
S31500001F60000392003968D150C046BD4602B080BD1C
S31500001F7080B582B000AF0200FB1D1A7046F2000366
S31500001F80C4F20003FA1D127852B2C0329100CA5848
S31500001F9008480240CA5046F20003C4F20003FA1D84
S31500001FA0127852B2C0329200D358C046BD4602B033
S31500001FB080BDC046FFFFFEFF80B584B000AF0200C3
S31500001FC0FB1D1A70FB1D1B785BB21800FFF7D0FFD4
S31500001FD0BFF35F8FC046FB1D1B785BB2FB60FB68DF
S31500001FE01F22134019004EF20013CEF20003FA1D11
S31500001FF0127852B2520901208840010060329200E4
S31500002000D150C046BD4604B080BD90B585B000AF86
S31500002010B9607A600F243B19021C1A704EF2001345
S31500002020CEF200033A19127852B29208C0329200E8
S31500002030D3583A191278110003220A40D200FF2120
S3150000204091400A00D2431A401000BB689B01FF2250
S315000020501A403B191B78190003230B40DB009A40FA
S3150000206011004EF20013CEF200033A19127852B262
S3150000207092080143C0329200D1507A683B191B780E
S315000020805BB211001800FFF75EFFC046BD4605B003
S3150000209090BD80B584B000AF0200FB1D1A70FB1D19
S315000020A01B785BB2FB60FB681F22134019004EF2DF
S315000020B00013CEF20003FA6852090120884001009D
S315000020C09200D150C046BD4604B080BD80B582B0F6
S315000020D000AF0200FB1D1A70FB1D1B785BB21800D7
S315000020E0FFF76AFFFB1D1B785BB21800FFF7D1FFF5
S315000020F0C046BD4602B080BD80B584B000AF0200C8
S31500002100FB1D1A70FB1D1B785BB2FB60FB681F2270
S31500002110134019004EF20013CEF20003FA1D127896
S3150000212052B2520901208840010020329200D1505B
S31500002130BFF34F8FC046BFF36F8FC046C046BD4644
S3150000214004B080BD90B585B000AFB9607A600F2449
S315000021503B19021C1A707A68B9683B191B785BB286
S315000021601800FFF752FF3B191B785BB21800FFF708
S31500002170ADFFC046BD4605B090BD80B582B000AF8C
S315000021800200FB1D1A70FB1D00229A5640F288635E
S31500002190C2F200039200D3581800BD4602B080BDBB
S315000021A080B584B000AF786039600023FB607B683F
S315000021B0BB603B68180000F0C4F80300FB60FB68D6
S315000021C00BB1FB6828E0BB683A685A603B689A69BD
S315000021D0BB685A623B68DA69BB68DA62BB68002290
S315000021E09A62BB685B681B7840F2207CC0F2400CA8
S315000021F063441B021A00BB689A60BB68180000F0B3
S31500002200FAF8BB68180000F02EFABA6845F24903DE
S31500002210C5F253231360FB681800BD4604B080BDA9
S3150000222080B586B002AFF860B9607A601A00FB1C10
S315000022301A707968BA68F868FB1C1B7800930B0063
S31500002240002100F0B7FA03001800BD4604B080BDB7
S3150000225080B586B002AFF860B9607A601A00FB1CE0
S315000022601A707A68B968F868FB1C1B78009313002B
S31500002270002200F09FFA03001800BD4604B080BD9E
S3150000228080B584B000AF78607B68FB60FB68002295
S315000022901A60FB685B685B6953B1FB685B685B69E6
S315000022A09B681A6AFB685B685B691B681800904745
S315000022B0FB685B681B6953B1FB685B681B699B68BD
S315000022C01A6AFB685B681B691B6818009047FB6805
S315000022D05B689B785BB2002B06DBFB685B689B78D0
S315000022E05BB21800FFF708FFFB685B685B785BB2C0
S315000022F0002B06DBFB685B685B785BB21800FFF7B8
S31500002300FBFEFB685B68DB785BB21800FFF7F4FE48
S31500002310FB685B681B795BB21800FFF7EDFEFB6894
S315000023209A68137840218B431370FB689B68DB78AF
S31500002330FB689B680022DA7000231800BD4604B0D3
S3150000234080BD80B586B000AF786000237B617B6876
S315000023501B693B617B681B7840F2207CC0F2400C15
S3150000236063441B020433FB603B69CBB13B695B688A
S315000023701B68802212051A603B695B681B68FA6855
S315000023809A603B699B681A683B6918683B695B6899
S315000023901900904703007B617B690BB17B6926E0DE
S315000023A07B685B69BB60BB6803B3BB685B681B6823
S315000023B0802212031A60BB685B681B68FA685A6061
S315000023C0BB689B681A68BB681868BB685B681900BD
S315000023D0904703007B617B6943B13B6933B13B693D
S315000023E09B681A6A3B691B68180090477B6918004E
S315000023F0BD4606B080BD80B590B000AF78600023C2
S31500002400FB6300233B620023BB6300237B63002343
S315000024103B630023FB620023BB6200237B62002335
S31500002420FB61FB6B80221343FB63FB6B2022134390
S31500002430FB63FB6B10221343FB637B685B685B7A71
S315000024400BB9082300E00023FA6B1343FB637B6898
S315000024505B685B7A0BB9102300E000237A6B1343A9
S315000024607B637B685B689B7A1A007B6A13437B629B
S315000024707B685B68DB7A5B007A6A13437B627B6806
S315000024805B685B7B1B037A6A13437B627B685B68D2
S315000024901B691BB1FB6B20221343FB637B685B68E4
S315000024A01B6ABB61BB691B7823B9FB6B0122934393
S315000024B0FB6303E0FB6B01221343FB63BB695B78A1
S315000024C0DB01DB431A00FB6B1340FB63BB695B78E4
S315000024D05A00BB695B785B0113431A00FB6B13431D
S315000024E0FB633B6A0F2293433B62BB699B781A00EE
S315000024F0BB69DB789A4013003A6A13433B627B6AF6
S31500002500702293437B62BB69DB781B017A6A1343B3
S315000025107B62BB691B795BB1BB6B20221343BB6338
S31500002520BB691B79022B03D1BB6B10221343BB6320
S31500002530BB695B795BB17B6B012213437B63BB6930
S315000025405B79012B03D17B6B022213437B63BB694F
S315000025509B791A00FB691343FB61BB691B7A9B07D6
S315000025609B0FDBB29B007A6A13437B627B685B68D6
S315000025705B7A6BB97B6A4EF2000213437B62BB69DE
S315000025805B7A3B63BB699B7AFB62BB69DB7ABB62A6
S3150000259000237B61EFF31083BB60BB687B61012383
S315000025A0FB60FB6883F31088C04646F6FC73C4F2F2
S315000025B004035A687B685B681B78190013235B1A4F
S315000025C0012199400B00D94346F6FC73C4F204037B
S315000025D00A405A6046F6FC73C4F204035B687B69E2
S315000025E03B613B6983F31088C0467B689B68DB7858
S315000025F07B689B680022DA707B689B68FA6BD2B2B4
S315000026001A707B689B683A6AD2B25A707B689B687C
S31500002610BA6BD2B29A707B689B68BA69D2799A72A1
S315000026207B689B683A6BD2B21A737B689B68FA6ABE
S31500002630D2B25A737B689B68BA6AD2B29A737B68C5
S315000026409B687A6BD2B2DA737B689B687A6A92B2BD
S315000026501A827B689B68FA69D1B220229954C046D7
S31500002660BD4610B080BD80B582B000AF78607B6893
S315000026705B689B785BB2002B0BDB7B685B68022098
S3150000268018567B685B689B7919007B681A00FFF710
S3150000269059FD7B685B685B785BB2002B0BDB7B6864
S315000026A05B68012018567B685B685B7919007B685C
S315000026B01A00FFF747FD7B685B68042018567B68A5
S315000026C05B681B7A19007B681A00FFF73BFD7B6885
S315000026D05B68032018567B685B68DB7919007B68AA
S315000026E01A00FFF792FCC046BD4602B080BDFFFF50
S315000026F080B586B000AF78607B689B68DB7ADBB21A
S315000027007B617B689B681B8A9BB2FB607B6820228F
S315000027109B5C0F2B08D97B69402293437B617B69C5
S31500002720202213437B610DE07B6820229B5C072BF4
S3150000273004D87B69402213437B6103E07B696022F6
S3150000274093437B617B6820229B5C3B613B690F2B3B
S3150000275004D93B6901339B08053B3B61FB680B4A87
S315000027601340FB603B691B02FA681343FB607B68FE
S315000027709B687A69D2B2DA727B689B68FA6892B211
S315000027801A82C046BD4606B080BDC046FFF0FFFFB8
S3150000279080B582B000AF78607B689B681B78DAB240
S315000027A07B689B6860210A43D2B21A70C046BD4658
S315000027B002B080BD80B588B000AFF860B9607A60BD
S315000027C03B60FB68FB61FB699B681B78DBB21A0008
S315000027D0402313400BB108231BE1FB69BA68DA609A
S315000027E0FB697A681A61FB6900225A61FB6900225B
S315000027F09A61FB693A68DA61FA692823FB18202195
S315000028001B785354FB695B685B69002B00D175E04C
S31500002810FB693A689A61FB6920229B5C0F2B0CD9F5
S31500002820FB695B685B695B681B68DA7830218A4301
S31500002830111C20220A43DA701AE0FB6920229B5CF5
S31500002840072B09D8FB695B685B695B681B68DA78EC
S3150000285030218A43DA700BE0FB695B685B695B6871
S315000028601B68DA7830218A43111C10220A43DA7079
S31500002870FB695B685B695B681B689A780C218A4315
S31500002880111C08220A439A70FB695B685B695B68E6
S315000028901B683A6892B2DA81FB695B685B695B68C0
S315000028A01B687A689A607B6893B9FB695B685B69A9
S315000028B05B681B689A780C218A439A70FB695B688F
S315000028C05B695B681A6840F23863C2F20003936082
S315000028D0FB695B685B699B685A68FB695B685B6957
S315000028E01868FB695B685B695B681B681900904741
S315000028F00300BB61BB690BB1BB698AE0FB695B681E
S315000029001B69002B00D17BE0FB693A685A61FB69C1
S3150000291020229B5C0F2B0CD9FB695B681B695B68EB
S315000029201B68DA7830218A43111C20220A43DA70A8
S315000029301AE0FB6920229B5C072B09D8FB695B68C0
S315000029401B695B681B68DA7830218A43DA700BE012
S31500002950FB695B681B695B681B68DA7830218A4310
S31500002960111C10220A43DA70FB695B681B695B68FD
S315000029701B68DA780C218A43111C08220A43DA7094
S31500002980FB695B681B695B681B683A6892B2DA810F
S31500002990FB695B681B695B681B68BA685A60BB6841
S315000029A093B9FB695B681B695B681B68DA780C2165
S315000029B08A43DA70FB695B681B695B681A6840F2D8
S315000029C03C63C2F200035360FB699A6813782021C6
S315000029D08B431370FB695B681B699B685A68FB69CC
S315000029E05B681B691868FB695B681B695B681B6829
S315000029F01900904703007B617B690BB17B6908E096
S31500002A00FB691800FFF774FEFB691800FFF7C0FEAC
S31500002A1000231800BD4608B080BD80B584B000AF65
S31500002A2078607B689B69FB607B68DB69FA689A4221
S31500002A3033D07B681B691BB97B689B685B6827E0A2
S31500002A407B6820229B5C0F2B09D97B689A687B6880
S31500002A501969FB689B00CB1852681A6018E07B68FE
S31500002A6020229B5C072B09D87B689A687B681969CA
S31500002A70FB68CB181279D2B21A7009E07B689A68A3
S31500002A807B681969FB685B00CB18928892B21A8042
S31500002A90FB685A1C7B689A6100E0C046BD4604B0DC
S31500002AA080BD80B584B000AF78607B685B69FB60F1
S31500002AB07B68DB69FA689A4232D07B68DB6823B9A7
S31500002AC07B689B6800225A6025E07B6820229B5C1D
S31500002AD00F2B09D97B68DA68FB689B00D2187B68E4
S31500002AE09B6812685A6016E07B6820229B5C072B65
S31500002AF008D87B68DA68FB68D2187B689B6812780E
S31500002B001A7108E07B68DA68FB685B00D2187B689C
S31500002B109B6812889A80FB685A1C7B685A6100E0A1
S31500002B20C046BD4604B080BD90B587B000AF7860A2
S31500002B300A00FB1C1A707B689B6A7B617B691BB968
S31500002B400823FB187B6104E00823FB187A6913CA83
S31500002B5013C37B685B681B781A007B691A607B6904
S31500002B60FA1C12781A717B68DA6A7B699A607B684C
S31500002B705B6A7A69100098477B689B6A2BB17B6811
S31500002B809B6A0822BA1813CA13C3C046BD4607B0CB
S31500002B9090BD90B583B000AFFC1DFFF7BFF90300F1
S31500002BA02370FB1D1B785BB21800FFF7E1F9FB1DD4
S31500002BB01B785BB21800FFF7E0FA03003B603B6846
S31500002BC01800FFF72AFF3B689A693B68DB699A425F
S31500002BD006D13B685B68DB785BB21800FFF759FAF1
S31500002BE0C046BD4603B090BDB0B584B000AF0F255A
S31500002BF07C19FFF793F9030023707B191B785BB2EE
S31500002C001800FFF7B5F97B191B785BB21800FFF7C0
S31500002C10B4FA0300BB60BB685B681B6A7B607B68B9
S31500002C20EBB17B685B78012B19D1BB685A69BB682D
S31500002C30DB69013B9A4207D1BB685B68DB785BB214
S31500002C401800FFF743FA0AE0BB685B681B6933B1FB
S31500002C50BB685B68DB785BB21800FFF71AFABB68E3
S31500002C601800FFF71EFFC046BD4604B0B0BD90B5C4
S31500002C7083B000AFFC1DFFF751F903002370FB1D65
S31500002C801B785BB21800FFF773F9FB1D1B785BB26C
S31500002C901800FFF772FA03003B603B689B68DB781D
S31500002CA09B07DB0FDBB223B13B685B685B7A012BCA
S31500002CB02AD1FB1D1B785BB21800FFF71DFA3B6893
S31500002CC05B689B785BB2002B06DB3B685B689B7896
S31500002CD05BB21800FFF710FA3B689A681378402138
S31500002CE08B4313703B685B689B785BB2002B06DBFB
S31500002CF03B685B689B785BB21800FFF7E7F93B68B7
S31500002D0001211800FFF710FFC046BD4603B090BD75
S31500002D10B0B584B000AF0F257C19FFF7FFF80300AC
S31500002D2023707B191B785BB21800FFF726FA0300A5
S31500002D30BB60BB685B689B785BB2002B06DBBB683D
S31500002D405B689B785BB21800FFF7D6F9BB689A6898
S31500002D50137840218B431370BB685B689B785BB22A
S31500002D60002B06DBBB685B689B785BB21800FFF73D
S31500002D70ADF9BB689A68FB1DD2781A70BB689B6870
S31500002D800022DA70FB1D1B7808221340DBB223B148
S31500002D90BB6805211800FFF7C7FEFB1D1B78012243
S31500002DA01340DBB223B1BB6804211800FFF7BCFE59
S31500002DB0FB1D1B7804221340DBB253B1FB1D1B78AD
S31500002DC010221340DBB223B1BB6808211800FFF7BD
S31500002DD0ABFE0F23FB181B785BB21800FFF7C8F891
S31500002DE0C046BD4604B0B0BD80B582B000AF02009B
S31500002DF0BB1D1A8040F60003C4F20403BA1D1288F4
S31500002E00120A92B21000BA1D1288FF210A4001016F
S31500002E108A189200D3589B07DB0FDBB21800BD4619
S31500002E2002B080BD80B584B000AF0023FB60EFF335
S31500002E3010837B607B68FB600123BB60BB6883F308
S31500002E401088C04640F28463C2F200031B685BB977
S31500002E5040F60053C4F204030022DA7040F6005331
S31500002E60C4F204034022DA7040F28463C2F2000323
S31500002E701B685A1C40F28463C2F200031A60FB68A6
S31500002E803B603B6883F31088C046C046BD4604B02D
S31500002E9080BD80B584B000AF0023FB60EFF31083E4
S31500002EA07B607B68FB600123BB60BB6883F3108893
S31500002EB0C04640F28463C2F200031B6853B140F27D
S31500002EC08463C2F200031B685A1E40F28463C2F296
S31500002ED000031A6040F28463C2F200031B685BB908
S31500002EE040F60053C4F204030022DA7040F60053A1
S31500002EF0C4F204038022DA70FB683B603B6883F30C
S31500002F001088C046C046BD4604B080BD80B584B0BA
S31500002F1000AF786039607B68FB60FA6845F254233D
S31500002F20C5F24F0313603B68180000F03DFA00231A
S31500002F301800BD4604B080BD80B584B000AF78608F
S31500002F407B68FB60FB6800221A6000231800BD4600
S31500002F5004B080BD80B582B000AF786039603B6850
S31500002F60180000F021FA00231800BD4602B080BD0B
S31500002F7090B585B000AFF8607A600A243B190A1C48
S31500002F801A80FFF74FFF7A683B191B88110018005B
S31500002F9000F08CFAFFF77DFF00231800BD4605B050
S31500002FA090BD80B584B000AFF8607A600A203B1807
S31500002FB00A1C1A803B181B881800FFF715FF030030
S31500002FC0DAB27B681A7000231800BD4604B080BDD3
S31500002FD080B586B000AFF8607A600A203B180A1CFC
S31500002FE01A803B181B881B0A9BB21A00FF2313404A
S31500002FF05B0140F2000CC4F2040C63447B617B6904
S315000030005B689AB27B681A8000231800BD4606B03A
S3150000301080BDF0B587B000AFF8600C001000190055
S315000030200A257B19221C1A8008243B19021C1A80C7
S31500003030BB1D0A1C1A801626BB1920003A18B91D9A
S31500003040128809880A401A803B1800229B5EDB43DF
S315000030501BB2BA1D0021525E13401AB214217B180E
S315000030601A807B191B881B0A9BB21A00FF23134088
S315000030705B0140F2000CC4F2040C63443B617B1814
S315000030801B881A04BB191B881A433B699A600023E4
S315000030901800BD4607B0F0BD90B587B000AF7860A8
S315000030A008001100BB1C021C1A807B1C0A1C1A702B
S315000030B01623FB1800221A8014203B1800221A80BF
S315000030C01223FB18BA1C1288FF218A431A80102487
S315000030D03B19BA1C1288FF210A401A803B191B882B
S315000030E001229A400E217B181A807B1C1B7823B97B
S315000030F03B187A1812881A8005E01623FB180E2250
S31500003100BA1812881A801223FB181B881B0A9BB256
S315000031101A00FF2313405B0140F2000CC4F2040CBA
S315000031206344BB601423FB181B881A041623FB1880
S315000031301B881A43BB689A6000231800BD4607B077
S3150000314090BDB0B58AB000AFF8600C001000190051
S315000031500A257B19221C1A8008243B19021C1A8096
S31500003160BB1D0A1C1A807B191B881B0A9BB21A00FE
S31500003170FF2313405B0140F2000CC4F2040C6344CD
S315000031807B627B6A1B683B623B19BA1D1B881288EF
S3150000319013409BB2FB613B191B88DB43BA1D1288A7
S315000031A01340BB613B6A7B617A69FB6913437B61B0
S315000031B0BB69DA437B6913407B617B6A7A691A6073
S315000031C000231800BD460AB0B0BD80B586B000AF7A
S315000031D0F8607A600A203B180A1C1A803B181B8884
S315000031E01B0A9BB21A00FF2313405B0140F2000C3E
S315000031F0C4F2040C63447B617B695B681B0C9AB266
S315000032007B681A8000231800BD4606B080BD80B5D5
S3150000321086B000AFF8607A600A203B180A1C1A8054
S3150000322001007B181B881B0A9BB21A00FF23134060
S315000032305B0140F2000CC4F2040C63447B61122073
S315000032403A187B695B681B0C13807B181B88FF226E
S31500003250134001229A4010217B181A803B187A18D5
S315000032601B88128813409BB27A1812889A4203D19F
S315000032707B6801221A7002E07B6800221A70002324
S315000032801800BD4606B080BDF0B587B000AFF86047
S315000032900C00100019000A257B19221C1A8008242C
S315000032A03B19021C1A80BB1D0A1C1A801626BB1964
S315000032B020003A18B91D128809880A401A803B185E
S315000032C000229B5EDB431BB2BA1D0021525E1340F7
S315000032D01AB214217B181A807B191B881B0A9BB211
S315000032E01A00FF2313405B0140F2000CC4F2040CE9
S315000032F063443B617B181B881A04BB191B881A435D
S315000033003B69DA6000231800BD4607B0F0BD90B5F2
S3150000331085B000AF786008001100BB1C021C1A8043
S315000033207B1C0A1C1A700A203B18BA1C12881A80C9
S315000033303B183A181288FF218A431A800823FB1883
S315000033403A1812881A800E217B1800221A800C2344
S31500003350FB1800221A807B1C1B78012B08D1BB1C92
S315000033601B88FF22134001229A407B181A8008E02E
S31500003370BB1C1B88FF22134001229A400C23FB181A
S315000033801A807B1C1C780C23FB181A880E23FB184A
S3150000339019880823FB181888230000F037F8002343
S315000033A01800BD4605B090BD90B585B000AF7860F9
S315000033B07B68BB60FFF736FD0E23FB1800221A80E0
S315000033C017E0BB685A680E217B181B88DB00D318F0
S315000033D09888BB685A680C007B181B88DB00D318DA
S315000033E01B68190000F062F83B191A883B19013274
S315000033F01A80BB681B880E22BA1812889A42E0D33C
S31500003400FFF747FDC046BD4605B090BDB0B584B0D8
S3150000341000AF05000C0010001900BB1D2A1C1A8005
S315000034203B1D221C1A80BB1C021C1A807B1C0A1C1A
S315000034301A700023FB60BB1D1B881B0A9BB21A0077
S31500003440FF2313405B0140F2000CC4F2040C6344FA
S31500003450BB60BB68DB68FB607B1C1B78012B0ED155
S315000034603B1D1B88FA681343FB60BB1C1B881B04AF
S315000034704FF6FF721A43FB681340FB600CE0BB1C5F
S315000034801B881B04FA681343FB603B1D1B88064A16
S315000034901A43FB681340FB60BB68FA68DA60C046F3
S315000034A0BD4604B0B0BDC0460000FFFF90B583B076
S315000034B000AF02003960BB1D1A803A6880235B02A8
S315000034C013403BB340F60003C4F20403BA1D12884E
S315000034D0120A92B21000BA1D1288FF210A40010199
S315000034E08A189100CA5816480240CA5040F600038E
S315000034F0C4F20403BA1D1288120A92B21400BA1D4D
S315000035001288FF210A4039680D48014020018218BF
S315000035109200D15040F60003C4F20403BA1D12888B
S31500003520120A92B21000BA1D1288FF210A40010148
S315000035308A1892003968D150C046BD4603B090BD86
S31500003540FFFFFEFF80B586B000AF786039607B680C
S315000035507B6100F0EBF93B685B683B610F217B18F0
S315000035603A6912781A707B181B787F2B01D90B23C6
S315000035701FE00F23FB1800229A5640F20003C2F206
S3150000358000039200D3580BB1082312E07B690F2287
S31500003590BA1812781A713B681A687B69110018000C
S315000035A000F01AFA7A6944F20033C4F25443136005
S315000035B000231800BD4606B080BDFFFF80B584B06D
S315000035C000AF786039607B68FB6046F20003C4F2A6
S315000035D00003FA68127952B2C0329100CA581948EB
S315000035E00240CA5046F20003C4F20003FA68127998
S315000035F052B2C0329200D358DB05DB0D9BB21A00E3
S3150000360048F200031343BB60C04645F20043C4F2D0
S315000036100003DB899BB21A00BB689342F5D03A6877
S31500003620FB681100180000F0D7F9FB68180000F0DD
S3150000363065F903000BB1132300E000231800BD4613
S3150000364004B080BDFFFFFFFE80B586B000AFF86016
S31500003650B9607A601A00BB1C1A80FB687B6146F26F
S315000036600003C4F200037A69127952B2C0329100A3
S31500003670CA5847480240CA5046F20003C4F2000343
S315000036807A69127952B2C0329200D358DB05DB0D4B
S315000036909BB21A0048F2000313433B61C04645F251
S315000036A00043C4F20003DB899BB21A003B699342D4
S315000036B0F5D045F20043C4F2000308221A70BB6835
S315000036C05BB17B691B795BB21A0040F20003C2F260
S315000036D000039200D358BA685A607B685BB17B6975
S315000036E01B795BB21A0040F20003C2F2000392009B
S315000036F0D3587A689A607B691B795BB21A0040F2EC
S315000037000003C2F200039200D358DB783F229343B2
S31500003710DBB2802B0DD17B691B795BB21A0040F2BC
S315000037200003C2F200039200D358BA1C12889A8191
S315000037301BE07B691B795BB21A0040F20003C2F200
S3150000374000039200D358DB783F229343DBB263B980
S315000037507B691B795BB21A0040F20003C2F20003D8
S315000037609200D358BA1C1288DA8145F20043C4F29B
S31500003770000318221A707B69180000F0BFF80300D6
S315000037800BB1132300E000231800BD4606B080BD30
S31500003790FFFFFFFE80B582B000AF78600A00FB1C19
S315000037A01A7006231800BD4602B080BD80B582B0EF
S315000037B000AF786006231800BD4602B080BD80B514
S315000037C084B000AF78607B68FB60FB68180000F08F
S315000037D095F803001800BD4604B080BD80B584B0DE
S315000037E000AF78607B68FB6046F20003C4F200031A
S315000037F0FA68127952B2C0329100CA5803480240A0
S31500003800CA5000231800BD4604B080BDFFFFFFFE6E
S3150000381080B584B000AF786039607B68FB60FB6878
S315000038201B795BB21A0040F20003C2F20003920059
S31500003830D358BB603B6800221A603B6800225A607E
S31500003840BB68DB783F229343DBB2EBB13B6840F2C7
S3150000385000129A60BB68DB899BB21A00FF231A40EC
S315000038603B68DA60BB68DB783F229343DBB2802B90
S3150000387014D13B68802252021A60BB689B899BB2B6
S315000038801A003B685A6009E03B68802252029A603F
S31500003890BB68DB899BB21A003B68DA60002318001C
S315000038A0BD4604B080BDFFFF80B584B000AF786030
S315000038B07B68FB600023BB6046F20003C4F2000392
S315000038C0FA68127952B2C0329100CA580A480240C8
S315000038D0CA50FB681B795BB21A0040F20003C2F2C1
S315000038E0000392000021D150FB6800221A60BB68D9
S315000038F01800BD4604B080BDFFFFFFFE80B582B054
S3150000390000AF786046F20003C4F200037A681279C9
S3150000391052B2C0329100CA58802040040243CA50B5
S3150000392000231800BD4602B080BDFFFF80B584B0FD
S3150000393000AF40F24063C2F200031B7801225340FD
S31500003940DBB2002B41D040F24063C2F200030122F9
S315000039501A700023FB60EFF310833B603B68FB604B
S3150000396001237B607B6883F31088C0464EF2000318
S31500003970C4F20103DA694EF20003C4F201031549E9
S315000039800A40DA614EF20003C4F20103DB69FB6808
S31500003990BB60BB6883F31088C04640F20003C2F2E6
S315000039A0000380220021180000F09BFC45F2004332
S315000039B0C4F2000340F20002C2F200025A6045F26D
S315000039C00043C4F2000301221A73C046BD4604B088
S315000039D080BDC046FFFFBFFF80B582B000AF7860F4
S315000039E039603B68180000F01BF845F20043C4F24A
S315000039F0000308221A707B681B795BB21A0040F23A
S31500003A000003C2F2000392003968D15045F2004328
S31500003A10C4F2000318221A70C046BD4602B080BD2B
S31500003A2080B584B000AF78600023FB60FB681B01A3
S31500003A307A68D318DB783F229343DBB2BBB1FB68CD
S31500003A401B017A68D318DB899AB20B217B181A708E
S31500003A507B181B781B021AB27B181B781BB2134308
S31500003A6019B2FB681B017A68D3188AB2DA81FB683F
S31500003A705A1CFA601B017A68D3189B783F2293433D
S31500003A80DBB2002BD2D1C046C046BD4604B080BDD5
S31500003A9080B582B000AF0200FB1D1A704EF2000323
S31500003AA0C4F20103A0229B5CDBB2FA1D12789A4293
S31500003AB031D04EF20003C4F2010336229B5CDBB226
S31500003AC053B94EF20003C4F201033C229B5CDB07B0
S31500003AD0DB0FDBB2012BF4D14EF20003C4F201037B
S31500003AE0A0229B5CDB06DB0FDBB2002BF4D14EF28F
S31500003AF00003C4F20103FA1DA02112785A544EF2B3
S31500003B000003C4F20103A0229B5CDB06DB0FDBB2E1
S31500003B10002BF4D100E0C046BD4602B080BD80B5A2
S31500003B2082B000AF4EF20003C4F2010326229B5C72
S31500003B30DBB27B6040F2A803C2F200037A6892000F
S31500003B40D2584EF20003C4F201031B6A5B015B0FFD
S31500003B50DBB2DA4040F21073C2F200031A60C046CC
S31500003B60BD4602B080BD80B500AF4EF20003C4F280
S31500003B7001033122012199544FF6C473C4F27E0326
S31500003B8001221A704EF20003C4F2010340F2003221
S31500003B901A624EF20003C4F2010326220021995450
S31500003BA0FFF7BDFFC046BD4680BD80B500AF40F201
S31500003BB0A803C2F2000346F60042C0F2DC221A60F5
S31500003BC040F2A803C2F2000341F20022C0F27A02D8
S31500003BD05A6040F2A803C2F2000348F200029A605B
S31500003BE040F2A803C2F2000342F60052C0F23112BC
S31500003BF0DA6040F2A803C2F2000348F200021A613A
S31500003C00FFF78DFFC046BD4680BDFFFF80B500AF04
S31500003C104EF20003C4F2010340F2FE3235499952D6
S31500003C204CF20003C4F27E0343F6C8720021995495
S31500003C30FFF7BBFF4EF20003C4F2010340F213424A
S31500003C40002199544EF20003C4F20103A222092175
S31500003C5099544EF20003C4F2010340F280429B5C89
S31500003C60DBB263B94EF20003C4F2010340F28042B4
S31500003C7001219954012140F2C44000F047F84EF268
S31500003C800003C4F2010340F28142002199544EF22E
S31500003C900003C4F2010340F280420021995400203F
S31500003CA0FFF7F6FE4EF20003C4F2010336220021AE
S31500003CB099544EF20003C4F201033C229B5CDB07DD
S31500003CC0DB0FDBB2012BF4D1FFF74DFF4EF2000301
S31500003CD0C4F2010340F2FE32074999524CF2000346
S31500003CE0C4F27E0343F6C87201219954C046BD460C
S31500003CF080BDC04603A5FFFF00A5FFFF80B582B0CB
S31500003D0000AF7860C046BD4602B080BDB0B58CB08D
S31500003D1000AFF860B9600023FB62FB68BA685343E2
S31500003D20BB6240F21073C2F200031B687B624CF662
S31500003D300023C3F69A337A6AB3FBF2F33B62BB6A9B
S31500003D403B6000237B6040F2E832002338687968E4
S31500003D5000F090FA02000B00BA61FB61FB6943B9FF
S31500003D60BA693B6AB2FBF3F37B617B699B08FB6232
S31500003D701BE03B6A9B00BA6AB2FBF3F3BB62BB6A09
S31500003D801C00002540F2E83200232000290000F044
S31500003D9071FA02000B00BA61FB61FB6913B9BB69DA
S31500003DA0FB6202E001235B42FB62FB6A1BB1FB6A1A
S31500003DB0180000F004F8C046BD460CB0B0BD01388E
S31500003DC00028FCD17047C04680B582B000AF020023
S31500003DD0FB1D1A70FB1D1A7840F24463C2F2000301
S31500003DE09200D3585BB1FB1D1A7840F24463C2F2CD
S31500003DF000039200D358FA1D127810009847C04667
S31500003E00BD4602B080BD80B582B000AF46F2000369
S31500003E10C4F200033A1D40F240115B5A1380FB1DA9
S31500003E2000221A7012E03B1D1A88FB1D1B78DA402F
S31500003E3013000122134023B1FB1D1B781800FFF766
S31500003E40C3FFFB1D1A78FB1D01321A70FB1D1B7880
S31500003E500F2BE8D946F20003C4F200033A1D40F2E4
S31500003E60301112885A52C046BD4602B080BD80B598
S31500003E7082B000AF00237B6012E044F6D813C0F294
S31500003E8000037A689B181A7846F20003C4F200030E
S31500003E9011007A68C0329200D1507B6801337B6092
S31500003EA07B681F2BE9D9C046C046BD4602B080BD1F
S31500003EB080B586B000AF0200FB1D1A7000237B613F
S31500003EC0EFF31083FB60FB687B6101233B613B6979
S31500003ED083F31088C046FB1D1A7840F20873C2F2BD
S31500003EE000035200D35A9BB283B1FB1D1A7840F2ED
S31500003EF00873C2F200035100CB5A9BB2013B99B240
S31500003F0040F20873C2F200035200D152FB1D1A7828
S31500003F1040F20873C2F200035200D35A9BB2EBB9C7
S31500003F204EF20003C4F2010340F2FE329B5A9BB2EA
S31500003F300F4A13439AB2FB1D197844F65023C0F278
S31500003F4000034900CB5ADB4399B24EF20003C4F298
S31500003F5001030A4091B240F2FE3299527B69BB607E
S31500003F60BB6883F31088C046C046BD4606B080BD18
S31500003F7000A5FFFF80B586B000AF0200FB1D1A70DA
S31500003F8000237B61EFF31083FB60FB687B610123F9
S31500003F903B613B6983F31088C046FB1D1A7840F2EB
S31500003FA00873C2F200035200D35A9BB2DBB94EF239
S31500003FB00003C4F2010340F2FE329B5A9AB2FB1D83
S31500003FC0197844F65023C0F200034900CB5A134334
S31500003FD09AB24EF20003C4F2010310490A4391B2A9
S31500003FE040F2FE329952FB1D1A7840F20873C2F273
S31500003FF000035100CB5A9BB2013399B240F20873C9
S31500004000C2F200035200D1527B69BB60BB6883F3E6
S315000040101088C046C046BD4606B080BD00A5FFFF5D
S3150000402080B500AF00F00AF8FDF770FFC046FDE767
S3150000403080B500AF00BEC046BD4680BD80B582B02B
S3150000404000AF4EF60053CEF2000340F20002C0F27B
S3150000405000029A600020FDF76FF9FFF7D7FD00F028
S315000040608BF80120FDF768F940F60053C4F200030F
S3150000407000229A8040F60053C4F200033C4A1A809C
S3150000408040F20003C0F200031B681A0040F600531A
S31500004090C4F2000337498C4662449A6040F200033A
S315000040A0C0F200031A6840F60053C4F20003DA6057
S315000040B046F20003C4F2000340F2201241F200016E
S315000040C0995240F60053C4F2000301229A8040F24E
S315000040D01472C2F2000240F2C003C2F20003D21A06
S315000040E040F2C003C2F200030021180000F0F9F804
S315000040F040F2A802C2F2000240F28003C2F20003BC
S31500004100D21A44F65C21C0F2000140F28003C2F2EA
S315000041100003180000F0DCF840F2A402C2F200022C
S3150000412040F2A003C2F20003D31A9B103B600023A7
S315000041307B600AE040F2A003C2F200037A689200B4
S31500004140D35898477B6801337B607A683B689A420C
S31500004150F0DBFFF7E4FC0220FDF7EEF8FFF787FE41
S315000041600020FFF7CBFDC046BD4602B080BDC0466D
S3150000417000A5FFFF00F8FFFF80B58AB000AFFB1D6A
S3150000418000221A70FB1D1B780120FFF7F3FE0023A7
S315000041907B62EFF31083BB60BB687B620123FB602D
S315000041A0FB6883F31088C04646F6FC73C4F204032A
S315000041B09A6846F6FC73C4F204032D490A409A60D5
S315000041C046F6FC73C4F204039B687B6A3B613B6959
S315000041D083F31088C04640F60003C4F204031B684C
S315000041E0DB07DB0FDBB21A00FB1D1A7040F600037B
S315000041F0C4F204031B68DB07DB0FDBB21A00FB1DEE
S315000042001A7040F60003C4F204031B68DB07DB0FD9
S31500004210DBB21A00FB1D1A7000233B62EFF310831A
S315000042207B617B693B620123BB61BB6983F31088B9
S31500004230C04646F6FC73C4F204039A6846F6FC735D
S31500004240C4F20403802149050A439A6046F6FC73CA
S31500004250C4F204039B683B6AFB61FB6983F3108825
S31500004260C0460120FFF724FEC046BD460AB080BD09
S31500004270FFFFFFEFF0B54FF6FF750400CE462C406A
S31500004280474615400E002900994680B5130C0700D5
S31500004290000C61434543584363430C0C5B19E41817
S315000042A08C46A54203D980235B0298464044230CE2
S315000042B061461B184FF6FF7008404946564379433E
S315000042C0240489192018C918C0BCB946B046F0BDE7
S315000042D0002310B59A4200D110BDCC5CC454013302
S315000042E0F8E703008218934200D170471970013332
S315000042F0F9E7FFFF00000204342E322E30000000E2
S315000043004275696C7420776974682052656E6573AE
S31500004310617320416476616E63656420466C6578DE
S3150000432069626C6520536F667477617265205061AF
S31500004330636B6167652076657273696F6E20342ED4
S31500004340322E3000F8B5C046F8BC08BC9E46704711
S31500004350F8B5C046F8BC08BC9E4670475465726DF9
S31500004360696E616C00FFFFFF0000000000005454FE
S31500004370522052454747455300FFFFFF620E00009B
S31500004380040F0000040F0000040F0000040F0000DB
S31500004390040F0000040F0000040F0000040F0000CB
S315000043A0040F0000040F0000E80D0000120E0000CC
S315000043B0040F0000040F0000040F0000040F0000AB
S315000043C0040F0000040F0000040F0000040F00009B
S315000043D0040F0000040F0000040F0000D00E0000C0
S315000043E0040F0000040F00008A0E0000040F0000F6
S315000043F03A0E0000040F0000040F0000620E0000D9
S315000044003031323334353637383941424344454604
S315000044104552524F523A20496E76616C696420507B
S315000044206172616D6574657273206F6E20257320ED
S3150000443066756E6374696F6E0A0000005761726E6E
S31500004440696E673A20466C61736820697320616CF7
S31500004450726561647920696E697469616C697A65EF
S31500004460642E0A004552524F523A20466C617368D8
S31500004470206D656D6F727920627573206661756C4B
S31500004480742E0A004552524F523A205468652066EF
S315000044906C617368206D656D6F7279206D6F6465F0
S315000044A06C207761736E2774207265636F6E69671F
S315000044B06E697A65642E0A596F752063616E2C20C9
S315000044C07965742C2073746172742077697468201E
S315000044D04E4F525F496E69745F776F5F494420742F
S315000044E06F2069676E6F72652074686520466C611F
S315000044F073682049442E00003D3D204D656D6F7266
S315000045007920466C617368204E4F5220496E666F63
S31500004510726D6174696F6E203D3D0A00204A454404
S31500004520454320494420202020207C203078253017
S3150000453036580A0020556E69717565204944202059
S3150000454020207C203078256C6C75580A000000000D
S3150000455020506167652053697A65202020207C20E1
S3150000456025642042797465730A0000002053656350
S31500004570746F722053697A6520207C20256420425E
S31500004580797465730A00000020426C6F636B2053D8
S31500004590697A652020207C20256420427974657321
S315000045A00A000000205061676520436F756E742015
S315000045B020207C2025642050616765730A00000076
S315000045C020536563746F7220436F756E74207C2070
S315000045D0256420536563746F72730A0020426C6F02
S315000045E0636B20436F756E7420207C202564204207
S315000045F06C6F636B730A00002043617061636974BA
S315000046007920202020207C202564204B420A0000AF
S31500004610203D3D204E4F5220496E697469616C6998
S315000046207A6174696F6E20446F6E65203D3D0A0A9B
S31500004630000000004E4F522045786974696E67206D
S315000046404465657020506F77657220446F776E0AF7
S31500004650000000004E4F5220456E74657220696E50
S31500004660204465657020506F77657220446F776EC1
S315000046700A0000005374617274696E67204D61739D
S31500004680732045726173650A57616974202E2E2E58
S315000046900A0000004552524F523A204661696C6545
S315000046A06420746F20657261736520666C6173683F
S315000046B00A000000446F6E65210A000045726173AE
S315000046C0696E6720344B206279746573206F6E20A3
S315000046D030782530385820416464726573730A0057
S315000046E045726173696E672033324B206279746557
S315000046F073206F6E203078253038582041646472FC
S315000047006573730A0000000045726173696E672065
S3150000471036344B206279746573206F6E20307825AD
S3150000472030385820416464726573730A00000000D3
S31500004730446F6E65210A0A00436865636B696E679C
S31500004740206966202564206279746573206F66206F
S31500004750416464726573732030782530385820615F
S31500004760726520656D7074792E0A00005761726E4D
S31500004770696E673A20526567696F6E206973204ECD
S315000047804F5420656D7074792E0A00005265676972
S315000047906F6E20697320656D7074792E0A000000B3
S315000047A04552524F523A20496E76616C69642070C8
S315000047B06172616D6574657273206F6E204E4F5223
S315000047C05F577269746542797465730A0000000068
S315000047D057726974696E67202564206279746573FF
S315000047E020696E746F20416464726573732025308E
S315000047F038582E0A000000004275666665722074FD
S315000048006F20577269746520696E746F20466C61FB
S3150000481073683A0A000000003D3D3D3D3D3D3D3D8B
S315000048203D3D3D3D3D3D3D3D3D3D3D3D3D3D2056B6
S31500004830616C75657320696E20484558203D3D3D85
S315000048403D3D3D3D3D3D3D3D3D3D3D3D3D3D3D3D92
S315000048503D3D3D3D3D0000000D0A0000307825300D
S315000048603858207C200000002530325820000000F7
S315000048700A3D3D3D3D3D3D3D3D3D3D3D3D3D3D3D95
S315000048803D3D3D3D3D3D3D3D3D3D3D3D3D3D3D3D52
S315000048903D3D3D3D3D3D3D3D3D3D3D3D3D3D3D3D42
S315000048A03D3D3D3D3D3D3D3D3D3D3D3D3D3D0A00A2
S315000048B0577269746520646F6E652E210A0A0000BE
S315000048C052656164696E6720256420627974657338
S315000048D0206F6E207468652041646472657373206E
S315000048E0253038582E0A00004275666665722072B9
S315000048F065616465642066726F6D204E4F523A0A98
S315000049000000000077323571787820526561644284
S315000049107974657320646F6E652E0A0A00FFFFFFC7
S315000049204E4F525F496E697400FFFFFFF00500208D
S31500004930D0490000F849000004FFFFFF8000002076
S3150000494038490000F80500203C4900002C4A0000C8
S3150000495005FFFFFF900000205049000000060020E0
S31500004960544900002C4A000001000000010000022A
S315000049700000000001040506070202020200010110
S31500004980010000005C490000444900005D1200007F
S315000049900000000068490000000001000801000056
S315000049A00000010609010000000001060A010000DE
S315000049B0000001060B0100000000010000030000DA
S315000049C005000000010300000500000002030000CE
S315000049D00700000098490000000000001F1D1F1B73
S315000049E000000000000000000000000000000000C1
S315000049F000000000000000000D2F0000392F00000D
S31500004A00552F0000712F00000F3200000F330000F9
S31500004A10A32F00009930000043310000CB31000085
S31500004A2089320000D12F0000133000004535000008
S31500004A30BD35000049360000BF370000DD370000F5
S31500004A4095370000AD37000011380000A938000086
S31100004A5001000200080010000000000039
S31500004A5C000008100000000000000000000000002C
S31500004A6C000010180000000000000000000000000C
S30D00004A7C810500005105000050
S31501010018FFFFFFFFFFFFFFFFFFFFFFFFFFFFFFFFE0
S31101010028FFFFFFFFFFFFFFFFFFFFFFFFD0
S7050000402199
