S01900004144435F554152545F4652454552544F532E73726563DF
S3150000000090160020C5260000B1250000C12600007C
S31500000010C1260000C1260000C1260000C12600003E
S315000000200000000000000000000000006D1200004B
S31500000030C12600000000000089120000D91200004D
S3150000004000000000C518000000000000411A000072
S315000000508522000000000000912200000000000040
S315000000605919000000000000F91900000000000006
S31500000070000000000000000000000000000000007A
S31500000080000000000000000000000000000000006A
S31500000090000000000000000000000000000000005A
S315000000A0000000000000000000000000000000004A
S31500000400FFFFFFFFDFCEFFFFFCFF0F00FFFF0F0028
S31500000410FCFF0F00FFFF0F00FCFF0F00FFFF0F00A8
S31500000420FCFF0F20FFFF0F20FCFF7F40FFFF7F40F8
S31500000430FCFF0D40FFFF0D40FFFFFFFFFFFFFFFF2B
S31500000440FFFFFFFFFFFFFFFFFFFFFFFFFFFFFFFFB6
S31500000450FFFFFFFFFFFFFFFFFFFFFFFFFFFFFFFFA6
S31500000460FFFFFFFFFFFFFFFFFFFFFFFFFFFFFFFF96
S31500000470FFFFFFFFFFFFFFFFFFFFFFFFFFFFFFFF86
S31500000480FFFFFFFFFFFFFFFFFFFFFFFFFFFFFFFF76
S31500000490FFFFFFFFFFFFFFFFFFFFFFFFFFFFFFFF66
S315000004A0FFFFFFFFFFFFFFFFFFFFFFFFFFFFFFFF56
S315000004B0FFFFFFFFFFFFFFFFFFFFFFFFFFFFFFFF46
S315000004C0FFFFFFFFFFFFFFFFFFFFFFFFFFFFFFFF36
S315000004D0FFFFFFFFFFFFFFFFFFFFFFFFFFFFFFFF26
S315000004E0FFFFFFFFFFFFFFFFFFFFFFFFFFFFFFFF16
S315000004F0FFFFFFFFFFFFFFFFFFFFFFFFFFFFFFFF06
S3150000050040F2100040F21003C2F20000C2F20003F3
S3150000051010B5834205D040F20003C0F2000303B1D8
S31500000520984710BD40F2100040F21003C2F20000DE
S31500000530C2F200031B1A9A10D90F8918491010B578
S3150000054029B140F20003C0F2000303B1984710BD81
S3150000055010B540F22804C2F20004237873B9FFF7FD
S31500000560CFFF40F20003C0F200032BB145F2044076
S31500000570C0F2000000E000BF0123237010BDC0469A
S3150000058040F20003C0F2000310B54BB140F22C015B
S3150000059045F20440C2F20001C0F2000000E000BFD4
S315000005A0FFF7C0FF10BDC046C368F0B5C646984603
S315000005B08768040040680D0000B5FE1AC018904414
S315000005C0964208D904F06CF9BFF35F8F4346E360A7
S315000005D080BCB846F0BD320004F062F94346DB1B2E
S315000005E01A006068A919984604F05AF9BFF35F8F9C
S315000005F0ECE7C046F8B54746CE46884680B51600B5
S31500000600070040F20009C56884681CE0013B5B1BDB
S31500000610641BB44200D934009C4200D91C0078689F
S3150000062022004146401904F03BF92D19A144A0448B
S31500000630361BBC68631B5A1E93415B421D40BFF3C9
S315000006405F8FFD6036B13B699D42DFD3013B1B19CD
S315000006505B1BDDE74846C0BCB946B046F8BDC046A0
S3150000066010B540F25444C2F20004A8220021200032
S3150000067004F01FF9032344F62C122361636140F250
S315000006805403C0F20002C2F20003A261E36140F229
S31500000690004323620023A3626362E362226640F2A0
S315000006A04402C2F2000262661022A2662367E36673
S315000006B06367BFF35F8F054A00215156013AE15443
S315000006C00133102BF8D1BFF35F8F10BD47490000EF
S315000006D0431C70B504005800C01840F25443C2F2DF
S315000006E000039C4663001B19DB006344DC6AC00000
S315000006F015006044012C05D0022C1ED084B10024C4
S31500000700200070BD9A6A5C6AA2421FD9013A121B88
S315000007102C00954200D914002200FFF745FFEFE7B1
S315000007209A6A5E6AB2420CD9013A961BB542E7D87C
S315000007302A00FFF739FF2C00E2E7FFF75BFF040012
S31500000740DEE71B6AD218013A961BEFE71B6AD2183E
S31500000750013A121BDCE7C046F8B540F25443C2F238
S3150000076000031B7804000D001600532B01D0FFF781
S3150000077077FFEFF31087012181F3108832002900FB
S315000007802000FFF7A5FF87F31088F8BD10B5040019
S3150000079083686268581C904207D82268D154E3687F
S315000007A062680133E3600300A0609A4200D010BD86
S315000007B021682069FFF7D0FFA368984203D0012380
S315000007C05B42E360F3E70023A360F0E7F8B54E462B
S315000007D045465746DE46E0B51E000A9B0F0080469A
S315000007E0150099460B99974200D270E03B00012212
S315000007F0B3FBF5F301329D42FAD9B246964200D2D6
S31500000800924601231A000A4093460B4202D14B46F8
S31500000810002B3ED14346DB680124002B24DB012E4E
S3150000082003D9013E6C43012EFBD8B7FBF4F39D427E
S31500000830F8D944F6D016C0F2000606E0B4FBF5F38C
S31500000840AC420DD31C00B7FBF3F322005A43F1561A
S315000008504046BF1AFFF79AFF4346DB68002BEDDAE6
S315000008605B460BB14B468BB9F0BCBB46B246A946BC
S31500000870A046F8BD01235B429C4620214046E14448
S31500000880FFF784FF4346DB68002BEDDBD145F1D84B
S31500000890EAE72024890717D53400631E9C410F23FD
S315000008A064429C433034CA45B4D201235B429C4621
S315000008B021004046E144FFF769FF4346DB68002B11
S315000008C0D2DB4A46002AA7D0CA45EED3A2E70122C8
S315000008D093E7C046F0B5DE4657464E464546E0B578
S315000008E09BB00AAB05934023069300230793089316
S315000008F0AF4B0C00914640F2010A9B468046099098
S31500000900002161560134002966D0252907D005A8A3
S31500000910FFF73CFF089B002BF2DA1F0065E000237F
S31500000920E3560027022508200422611C2D2B0DD03A
S315000009302D2B0FDC232B12D02B2B00D061E10C00CA
S3150000094017430023E356611C2D2BF1D153460C00AF
S315000009501F43F6E7302B05D10C002F43F1E70C00BF
S315000009600743EEE71A00303AD2B20026092A0DD81C
S31500000970B20096197600F6180023CB560C001A0022
S31500000980303AD2B2303E0131092AF1D92E2B00D1AC
S31500000990B1E000230025E3560C0004221900914320
S315000009A0682909D0252B11D0583BDBB2202BB1D8B2
S315000009B05A469B00D3589F4604210023E356013430
S315000009C01A008A43682AF8D0252BEDD1252105A8DF
S315000009D0FFF7DCFE089B9EE7089F4546002F04DDD7
S315000009E0079C002C00D0A0E03F1938001BB0F0BCDB
S315000009F0BB46B246A946A046F0BD4B4649461B68D3
S31500000A0005A81A1D0A60196810222B000197009686
S31500000A10FFF7DCFE089B7EE74B4649461B6805A8A8
S31500000A201A1D0A6000215956FFF7B0FE089B72E7AF
S31500000A304B4649461B6805A81A1D0A6019680A2212
S31500000A402B0001970096FFF7C1FE089B63E74B4614
S31500000A5049461B681A1D0A601D6806E005A8FFF7CF
S31500000A6095FE089B002B00DA57E7002169560135F1
S31500000A700029F3D14EE74B4649461B6805A81A1DC7
S31500000A800A60196800230193083300931022FFF7C8
S31500000A909DFE089B3FE74B4649461B681A1D1B688F
S31500000AA00A60DA1703939B1853400122092B06DDCF
S31500000AB00A201900013293FBF0F36329F9DC029551
S31500000AC0954247D3BEBB0026089B002B00DA24E7DD
S31500000AD0039B002B59DB7B0762D403233B40022B8D
S31500000AE068D02B000A2203990197009605A8FFF704
S31500000AF06DFE089B0FE70123E3561A00303AD2B287
S31500000B00092A52D800250C002A009500AD186D0060
S31500000B10EA1800230134E356303A19003039C9B2D5
S31500000B200929F2D91500611C36E7220028000AA916
S31500000B30FFF712FE58E70223039A3B40002A0DDB1B
S31500000B407A070BD4002B4CD015B1FB0700D46EB935
S31500000B50089BBAE70292002EEDD1B4E7013E0BB135
S31500000B60002DF5D0FB07F3D4002EACD0029BB34288
S31500000B70EED2202105A8FFF709FE089B013E002BB7
S31500000B8000DACAE6002EF1D1E2E75B422D2105A884
S31500000B900393FFF7FBFD089B002B9EDA1F0024E75B
S31500000BA02B2105A8FFF7F2FDF5E700250131F3E655
S31500000BB04C490000002D94D1002E92D0029B9E42FB
S31500000BC01DD9302105A8FFF7E1FD089B013E002B4A
S31500000BD000DAA2E6002EF1D1002B00DB81E71F0030
S31500000BE003E7FB07B3D5089B002B00DA95E6032342
S31500000BF03B40022B00D074E7002DDFD071E7089B45
S31500000C00EAE70026C5E6C0460EB400B582B003ABDF
S31500000C1002CB01AA0193FFF75DFE02B008BC03B048
S31500000C201847C04644F6E01110B502000020C0F295
S31500000C300001FFF7E9FF10BD10B538B94CF200030B
S31500000C4090220121C4F27E03995410BD0228FCD1E2
S31500000C5044F6103340F62C10C0F200035968C2F275
S31500000C60000001F03BF8F0E740F2FC430122C2F23B
S31500000C7000031A707047C046F8B5DE4657464E4622
S31500000C804546E0B583460D00924603F09DFD0600FD
S31500000C9060B3002863DD6B1E07000021994640F211
S31500000CA00A0897FBF8F04C4683001B185B00FB1AFA
S31500000CB030330A00013163543B000700092BF0DC96
S31500000CC08C46931C4F1099469846AC44002F4CD046
S31500000CD02B00AA187F1900210020515618561970AA
S31500000CE001331070013A9F42F5D107E06B1C9C4618
S31500000CF0302340F2020840F202092B702E2362468E
S31500000D003000137003F080FD011C584603F0BAFB57
S31500000D105346002B1ADD4B46EF185346EE184E4449
S31500000D200021C4F2201103F06FFA041C03F04CFDFD
S31500000D30030030333B7003F067FD0137011C201CB4
S31500000D4003F0A0FBBE42EBD1D046C8444246002386
S31500000D50AB54F0BCBB46B246A946A046F8BDAC466D
S31500000D6040F2010840F20109C8E740F20209C5E76E
S31500000D70F0B540F62C10C646012200B540F2062119
S31500000D80C2F2000000F0C8FE44F6303140F63410DE
S31500000D90C0F20001C2F2000001F0BEF940F62C10CC
S31500000DA040F2005540F20E5840F2045740F60076E5
S31500000DB0012240F20041C2F2000000F0ADFEC2F294
S31500000DC00005C2F20008C2F20007C2F200065EE0A9
S31500000DD044F63020C0F20000FFF724FF40F634103E
S31500000DE0C2F2000000F0D6FF40F2E831286040F27F
S31500000DF02C1001F0AFFB2B68002B62D144F6682063
S31500000E00C0F20000FFF70EFF40F20E5240F634101B
S31500000E100021C2F20002C2F2000000F0C1FF286009
S31500000E2028B144F68020C0F20000FFF7FBFE4346DF
S31500000E30188803F0E9FC46F26661C3F6E67103F032
S31500000E40E3F9E621890503F0DFF940F208510222B1
S31500000E50C2F200013860FFF70FFF40F2085244F675
S31500000E60A021C2F20002C0F200010020FFF7CCFE72
S31500000E70002002F025FC44F69C210400C0F200018B
S31500000E800020FFF7C1FE3068611C02F029FC44F621
S31500000E90E410C0F20000FFF7C5FE44F61C3140F630
S31500000EA03410C0F20001C2F2000000F0CFFF28604B
S31500000EB000288DD044F60C20C0F20000FFF7B2FEE9
S31500000EC086E744F64420C0F20000FFF7ABFE95E744
S31500000ED044F6543140F6581070B5C0F20001C2F223
S31500000EE0000000F09BFB40F62C1001220221C2F20A
S31500000EF0000000F011FE40F2E83140F22C1001F043
S31500000F0029FB40F62C10012240F20141C2F20000FA
S31500000F1000F002FE40F2E83140F22C1001F01AFB1C
S31500000F2040F62C10012240F20721C2F2000000F028
S31500000F30F3FD40F2E83140F2EE2001F00BFB40F603
S31500000F402C1040F22C5544F6E024002240F20721F2
S31500000F50C2F2000000F0E0FD40F2E831642001F04A
S31500000F60F9FAC2F20005C0F2000431E040F22C5258
S31500000F7044F6E821C2F20002C0F200010020FFF7A9
S31500000F8043FE40F2E831C82001F0E4FA40F22C7149
S31500000F9040F658101022C2F20001C2F2000000F022
S31500000FA0A7FA40F2E831642001F0D4FA40F22C723C
S31500000FB044F6FC21C2F20002C0F200010020FFF755
S31500000FC023FE002002F07CFB811E002002F088FB3D
S31500000FD044F6BC20C0F20000FFF724FE40F22C517C
S31500000FE040F65810236810222B60A388C2F2000135
S31500000FF0AB80A379C2F20000AB7100F07DFA002845
S31500001000B4D140F2E83140F2E83001F0A3FAADE79E
S315000010100379022B04D0042B0FD0012B07D0704785
S3150000102040F218530122C2F200031A60F7E740F2B9
S315000010301452C2F200021360F1E740F21053C2F2FA
S3150000104000031A680F2AEAD844F65431C0F20001A8
S3150000105049788068022907D8511C196040F21C5350
S31500001060C2F200039854DAE740F21C51C2F20001C2
S315000010705118023208801A60D1E7C0467047C04650
S3150000108010B5FFF7FBFF10BD00BE704770B540F608
S3150000109090640121C2F200042068494201F046FF33
S315000010A0012803D000212068FFF7EEFF40F6946385
S315000010B0C2F200031A7802B170BD013240F698659B
S315000010C01A70FFF7DDFFC2F200052B68013B2B60AB
S315000010D0002BF1D0002300220021206801F056FDEC
S315000010E00128F2D000212068FFF7CEFF2B68013BD4
S315000010F02B60002BEED1DFE740F698630022C2F2A8
S31500001100000310B51A6040F69463C2F200031A7029
S3150000111040F64862012140F20010C2F2000201F0DE
S31500001120E9FC40F69063C2F20003186038B100F0A3
S3150000113069F800F02DF802F05BFB002010BD0021DD
S315000011400800FFF7A1FFF2E740F6E853C2F20003FA
S31500001150036040F6E833C2F200030B60802313609D
S315000011607047C04640F68833C2F20003036040F67B
S315000011708813C2F200030B60802313607047C046D9
S3150000118010B50400FFF782FF2000FFF7F1FD10BD48
S3150000119040F69863C2F200031A6800B501321A607D
S315000011A040F6A06385B0C2F20003029341F2906359
S315000011B0C2F200030193022344F61841009341F260
S315000011C0811044F6284340F20012C0F20003C0F238
S315000011D00001C0F2000002F025F940F69C63C2F25D
S315000011E00003186008B105B000BD0021FFF74CFFF1
S315000011F0F9E7C04610B50400FFF748FF2000FFF7E7
S3150000120067FE10BD40F69863C2F200031A6800B587
S3150000121001321A6040F6047385B0C2F200030293ED
S3150000122041F69023C2F200030193012344F62C41B8
S31500001230009341F2F51044F6384340F20012C0F232
S315000012400003C0F20001C0F2000002F0EBF840F625
S315000012500073C2F20003186008B105B000BD00219A
S31500001260FFF712FFF9E7C04600BEFEE7054A042075
S315000012707146084202D0EFF309801047EFF3088069
S315000012801047000001130000084B1968EFF30982AC
S31500001290203A0A60F0C244464D4656465F46F0C2C2
S315000012A072B602F001FC62B600F002B88C110020A2
S315000012B0074801680A681032F0CAA046A946B24635
S315000012C0BB4682F30988203AF0CA02490847000063
S315000012D08C110020FDFFFFFF10B5EFF310840123F2
S315000012E083F3108802F0CCFB30B14EF60053802217
S315000012F0CEF2000352055A6084F3108810BDC04632
S3150000130010B58369023B1B78022B02D0032B03D84E
S3150000131010BDFFF7CDFFFBE744F65C4344F61C52D5
S3150000132044F6704040F20541C0F20003C0F20002EC
S31500001330C0F2000001F008F910B58024011F640412
S315000013400C6001240439A2430A6041F2692204397F
S31500001350C0F200020A600200203A4038136010BD55
S3150000136010B5EFF31081012383F3108840F66872FD
S31500001370C2F20002136801331360012B00D010BDC6
S3150000138040F66473C2F2000319604EF60053CEF2C3
S3150000139000035B68DB05F2D044F6984344F6085236
S315000013A044F6704040F2F641C0F20003C0F200027B
S315000013B0C0F2000001F0C8F840F66872C2F20002FE
S315000013C0136810B553B1013B136033B940F664732B
S315000013D0C2F200031B6883F3108810BD44F6E04395
S315000013E044F6F44244F6704040F2FF41C0F2000376
S315000013F0C0F20002C0F2000001F0A6F830B560B3FA
S315000014004EF20003C4F201039A8995B212B2002A81
S3150000141009DBBFF34F8F30BFBFF36F8F62B6BFF3E9
S315000014206F8F72B619E040F2FE3200210B4C985ACB
S315000014309C5299810A49084380B29852BFF34F8F54
S3150000144030BFBFF36F8F62B6BFF36F8F72B6985A15
S315000014509C52014389B29D81995230BD02A5FFFF7E
S3150000146000A5FFFF10B572B602F012FA0120FFF7D1
S31500001470C5FF62B602F014FA10BDC04641F2380349
S3150000148040F2E832C2F200031B68B3FBF2F380229B
S31500001490013B5204934213D24EF210024EF6005113
S315000014A0C020CEF200025360CEF200010B6A0006A5
S315000014B01B021B0A03430B6200239360073313606E
S315000014C07047C0464EF60053CEF20003196A074A2B
S315000014D010B51140C02212040A431A62FFF7CEFF6C
S315000014E062B6BFF36F8F02DF00BEFDE7FFFF00FFAE
S315000014F041618261002070477B2330B5046AA5787C
S315000015002B40A37083789B079B0FD21A026180221F
S31500001510CB18C360A3781343A370032382781340C8
S31500001520022B03D00B78E370002030BD4FF600622B
S315000015300B881343E381F7E7F0B5CE4647461F24F1
S3150000154080B50F0001211440A1404EF2001453094A
S315000015502033CEF200049B0081461951BFF34F8F12
S31500001560BFF36F8F130046F20001C033C4F20001CF
S315000015709B005C58144D2C405C505B584EF2001199
S31500001580CEF200018C4640F20036FF2493089B0001
S31500001590634499590325884621001540ED00A9406A
S315000015A04046BF013C408843AC400100214399516D
S315000015B040F6B0734946C2F200039200D150C0BC57
S315000015C0B946B046F0BDC046FFFFFEFFF0B5C646C1
S315000015D000B50500806A84B08C4690466C46D8B14A
S315000015E02300060086CE86C336681E60EB691B782C
S315000015F003606346836043460371EB6AC3606B6AAC
S315000016009847AB6A23B123CC23C31A00236813601F
S3150000161004B080BCB846F0BD2000E7E743F6000200
S31500001620F8B5DE464E4645465746C0F20022944679
S31500001630E0B500260B78067063445B0103624B69D4
S31500001640C16143628B698662C3624A780D00534268
S315000016505A410321837801328B4313430B22837053
S31500001660AA56A97A0400FFF767FF05222000AA56AA
S315000016702979FFF761FF07222000AA56A979FFF70B
S315000016805BFF09222000AA56297AFFF755FFEFF3E0
S315000016901087012080F3108846F6FC732978C4F27F
S315000016A004038C465A688021904662460906D1405A
S315000016B042468A435A605B6887F3108840F20F22DD
S315000016C02978236ACA409E701E715E729E72DE720F
S315000016D05E83104201D04022DA7406221A776878B7
S315000016E0AA78EE78E9692D780DB9744D9D821201BC
S315000016F0F6003243032800D1DBE0454268410F255E
S315000017004042A843F230D2B21A7002229871087B86
S31500001710FF264000024020205A734A788D78D20175
S315000017206D01284032400243002018720878851E59
S315000017308346012D00D8B4E003274D68D2B2DA7192
S31500001740AA786E785A701A783E40BA4332431A70B5
S31500001750EA7859379A74DE792A78BE433A4032439A
S31500001760DA71002305222361A361E3606361E36903
S31500001770534F9A5646F200031500C035C4F20003D3
S31500001780AD00EE58BC463E40EE50ED58BFF35F8FBD
S3150000179040F21F0A0126554637001540AF404EF26B
S315000017A00015CEF20005A94640F2801552099200B6
S315000017B04A445751176040F2C008E2696046D27A3F
S315000017C052B290444746BF00B846FF5807404046CD
S315000017D0C750C058BFF35F8F57461740B84637000B
S315000017E0404687404EF20010CEF200008146520974
S315000017F092004A445751176040F2C008E269D27914
S3150000180052B29044404680008046C0580700604669
S3150000181007404046C750C058BFF35F8F5746174032
S31500001820B8463700404687404EF20010CEF2000020
S315000018308146520992004A445751176040F2C00847
S31500001840E2696746527A52B290444046800080462A
S31500001850C05807404046C750C358BFF35F8F4EF28B
S3150000186000135746CEF2000317409C46BE4052096D
S31500001870920062445651166003235A461340702262
S315000018801343226A002093704B89238144F6551333
S31500001890C5F243336360F0BCBB46B246A946A046D8
S315000018A0F8BD5E70022801D110252A43D2B2DA7142
S315000018B057E73D300243B23025E7C04600F8FFFF48
S315000018C0FFFFFEFF70B5EFF30383103B5BB21A0018
S315000018D046F20001C032C4F20001920050581D4C7D
S315000018E020405050525840F6B0729B00C2F200029F
S315000018F09858C3691B699BB1036903B170BD026A3D
S315000019007F2391780B4004210B4393700023C3601F
S31500001910436A002BF2D080220021FFF757FEEDE745
S315000019200369026A002BEBD003258178C4680D4059
S31500001930022D08D02578D5708A07920F9B1AA41815
S315000019400361C460D9E74FF6006625883543D58123
S31500001950F2E7C046FFFFFEFF10B582B0EFF3038348
S31500001960103B5BB21A0046F20001C032C4F200011D
S31500001970920050581F4C20405050525840F6B072BA
S315000019809B00C2F200029C580323A2781340022B4C
S315000019900DD0236A5979A369C9B2019183B9636AE3
S315000019A01BB104222000FFF711FE02B010BD40F269
S315000019B0FF11236A1B8A1940A3690191002BEED0FF
S315000019C09207920F606901A902F06AFFA378626923
S315000019D09B079B0FD2186261A269D31AA361002BE1
S315000019E0E3D1636A002BE0D0012200212000FFF73B
S315000019F0EDFDDAE7FFFFFEFF10B5EFF3038440F6D7
S31500001A00B073103C64B2C2F20003A200D0587B232C
S31500001A10026A91780B409370436A1BB1022200213F
S31500001A20FFF7D4FD46F20002C034C4F20002A4005F
S31500001A30A15802480140A150A35810BDFFFFFEFF68
S31500001A4070B5EFF3038440F6B073103C64B2C2F293
S31500001A500003A200D058032382781340022B21D022
S31500001A60036A5979C9B238221D792A40ED0602D592
S31500001A701D7FED0713D538261D79B5431D71436AC1
S31500001A800BB1FFF7A3FD46F20002C034C4F2000218
S31500001A90A400A15806480140A150A35870BD402596
S31500001AA02A43E8E740F2FF11036A1A8A1140DAE78F
S31500001AB0FFFFFEFF0023036000207047FF2010B5E4
S31500001AC040F600040B0A084019010918C4F2040480
S31500001AD089000B5900209B07DB0F137010BDC04611
S31500001AE00023C4F204039C46090A490161444B6879
S31500001AF0002013807047C0460020C4F204008446CC
S31500001B001800090A90430004134049010343614445
S31500001B1000208B607047C046FF2301200B40984091
S31500001B204FF6FF73034002B91B040022C4F20402FD
S31500001B309446090A4901614400208B607047C046FB
S31500001B400020C4F2040084461800090A490110B5B1
S31500001B5061440C681040204393439843086000207A
S31500001B6010BDC0460023C4F204039C46090A49017D
S31500001B7061444B6800201B0C138070470020C4F2A0
S31500001B80040084460B0A5B0163445868FF2319402E
S31500001B90FE3B8B40000C99B203405B1A59424B4105
S31500001BA0002013707047C0460020C4F2040084462B
S31500001BB01800090A90430004134049010343614495
S31500001BC00020CB607047C046FF20012308408340B9
S31500001BD00020C4F204008446090A49016144012A2E
S31500001BE007D0CA681B0413431B0C1B040020CB60E0
S31500001BF070474FF6FF72C868134003431340F5E77A
S31500001C00F0B5DE4657464E464546E0B583B0EFF39F
S31500001C101082012383F3108840F6AC73C2F20003EE
S31500001C2001931B6833B940F60051C4F20401CB702E
S31500001C304033CB7001990B6801330B6082F3108837
S31500001C40038800934BB380235B029846224B40F6F1
S31500001C500005002140F2FF099C464068C4F20405D5
S31500001C604F4682880468130A3A4047461B013C42A5
S31500001C700AD09F18BF00BA4666467F593740564677
S31500001C8077516746274077519B189B005C5101317D
S31500001C90009B89B208308B42E2D1EFF31082012318
S31500001CA083F31088019B1B681BB101990B68013BEC
S31500001CB00B60019B1B6833B940F60051C4F2040166
S31500001CC0CB708033CB7082F3108803B0F0BCBB4678
S31500001CD0B246A946A046F0BDFFFFFEFF45F25423DB
S31500001CE010B5C5F24F0303600800FFF789FF002017
S31500001CF010BDC04610B50800FFF782FF002010BDDA
S31500001D00F0B5EFF31084012383F3108840F6AC732B
S31500001D10C2F20003186830B940F60055C4F2040553
S31500001D20E8704030E87018680130186084F3108855
S31500001D30FF27080A0F400001D1030BD540F6000427
S31500001D40C119C4F2040489000E59114D2E401540E4
S31500001D500E510D5140F60001C019C4F20401800075
S31500001D604250EFF31082012181F31088196811B1F6
S31500001D701968013919601B6833B940F60051C4F27D
S31500001D800401CB708033CB7082F310880020F0BD45
S31500001D90FFFFFEFF0368828A00201A807047C04654
S31500001DA0036810314900CB5A002013807047C046A3
S31500001DB070B5C56904000E0088B0A5B120222900BF
S31500001DC0684602F06DFD20223100280002F068FD11
S31500001DD02800A3699847E06918B12022694602F0F5
S31500001DE05FFD08B070BD0D00F2E7C04630B50100DA
S31500001DF089B0EFF3038340F6B072103B5BB2C2F2D8
S31500001E0000029B009858EFF3038346F20002103B52
S31500001E105BB2C033C4F200029B009C580A4D2C40B2
S31500001E209C509B586B466A46997043681B88138082
S31500001E3000231372036A0193836913B16946FFF79E
S31500001E40B7FF09B030BDC046FFFFFEFFF0B54546FF
S31500001E5057464E46DE46E0B505000F686A6838000C
S31500001E60526983B001924A688C689046864BA446B4
S31500001E7018401A4023402C6886B2A68096B2A682E5
S31500001E809EB22681120C1B0C060CE680E282638150
S31500001E9043463B439846C02342469B051A4200D020
S31500001EA08CE0CB68002B00D1E0E01A89924616053B
S31500001EB045D540F2900C6646A2535E8940F29C0CD2
S31500001EC0B04666464246A2539A8940F29E0C904618
S31500001ED062464646A6521A6840F29408944692B262
S31500001EE0914642464E46A65262461201120D904651
S31500001EF040F2960946464A46A6526246120F944654
S31500001F0040F2920866464246A6545A6840F298083D
S31500001F10944692B2914642464E46A65262461201F7
S31500001F20120D904640F29A0946464A46A652624625
S31500001F30120F944640F2930866464246A65452460D
S31500001F40920525D490235246E2520A8A103BE25269
S31500001F50019BDB7873B11F2326889E43002800D19E
S31500001F6089E002F005F91F36301A80B22080AB8A6C
S31500001F701843A88244F243430020C5F24123EB6094
S31500001F802F6103B0F0BCBB46B246A946A046F0BDE1
S31500001F909A7C40F2A60894466646DA7C40F2A80C83
S31500001FA016434246A654DA89904662464646A652EB
S31500001FB01B8A9C46AA236246E252C3E74EF20003FE
S31500001FC00722C4F201031B6A41F2380B9A461B0E24
S31500001FD013409946C2F2000B5B464E461B68B3405F
S31500001FE056463240D34040F2E832B3FBF2F341F2B8
S31500001FF088325A4344F24023C0F20F03B2FBF3F295
S315000020000132072A35D380235B05994643464E465F
S3150000201033409A4646464B461E420CD040F2DE0AF4
S315000020205646D3B2A35566464B4633405E1EB34171
S315000020300133FF339A4680239B05994643464E4615
S3150000204033420CD040F2DF084346D2B2E254634634
S31500002050334212D1534640F2002213439A46534666
S315000020609BB26382CB68002B00D01EE740F2000AC9
S3150000207068E70722C7E7202075E7534640F20222A9
S3150000208013439A46EBE7C046FFFFFFCFF0B5C646BF
S3150000209090464EF20012FF240325CEF2000294462B
S315000020A0220040F200370540ED008901AA400C40AD
S315000020B0AC4083089B006344DE5900B59643264333
S315000020C0DE5140F6B07342468100C2F200035A5018
S315000020D0030046F20002C033C4F200029B00995886
S315000020E00C4C214099509B58BFF35F8F1F22012350
S315000020F0024093404EF20012CEF20002944640F2A5
S3150000210080124009800060448350036080BCB8465A
S31500002110F0BDC046FFFFFEFFF0B54E464546DE4623
S3150000212057464CF20002CB68E0B54E6983610B69F5
S31500002130C4F20502036200239446C3610B88416022
S315000021405B02634403608B784A790C005B031102DF
S315000021500B433179050083B0890700D582E0402121
S315000021600B43F178002900D171E040F2802003434F
S315000021709BB240F2000CAB82022A06D144F66452AE
S315000021808900C0F20002525A944620797278C00340
S315000021905201104337780190EFF31089012282F340
S315000021A0108846F6FC72C4F20402D06840F2100AA7
S315000021B080462088834650465946401A0100012031
S315000021C08840010040468843D060D26889F3108871
S315000021D047F6FF512A680B401380634613826B460D
S315000021E09888D0811773337999073FD48A210620BE
S315000021F053542056002803DB2A00217AFFF746FFB6
S3150000220007202056002803DB2A00617AFFF73EFFED
S3150000221006203056002803DB2A00317AFFF736FF06
S3150000222007203056002803DB2A00717AFFF72EFFBD
S3150000223000232B6144F243430020C5F24123AB60E7
S3150000224003B0F0BCBB46B246A946A046F0BD002A84
S3150000225000D08DE748F2000213439BB240F2000C17
S31500002260AB8292E740F240410B437AE703210B43EE
S31500002270873153540120893900F06CF92A68337983
S31500002280B4E7C04610B50020FFF7B0FD10BDC0464C
S31500002290F0B5D6464F464646C0B588B0EFF3038440
S315000022A040F6B073103C64B2C2F20003A200D658E6
S315000022B06D4673685A69927952B2A2422FD00B22A8
S315000022C0AA701B8832682B80A623D35C9B06990EC6
S315000022D00B001F291EDCAC2101202B72535C8343AB
S315000022E05354336A6B60B3691BB129003000FFF7A2
S315000022F05FFD46F20003C034A400C4F20003E258B6
S3150000230034490A40E250E35808B0E0BCBA46B14648
S31500002310A846F0BD0F230B40033B5BB2DBE70A2266
S31500002320AA701B8840F2010C2B8000232B723768A1
S31500002330A033FA5A93B29846A223F85A83B2994622
S31500002340A423FB5C0004D9B21B07C01880184308FD
S315000023508A461F223BB16146400019405B0808438C
S31500002360013A002BF7D19040D8B101F001FF42B2FB
S315000023700F280DDDC3B21B281BDC0F2119400123DA
S315000023808B40494699430B00A2217B522A72A8E74B
S3150000239001234146834099430B00A0217B522A72B8
S315000023A09FE7012352469A43A333FA54A33B2B7269
S315000023B097E70320012118408140504688430100D9
S315000023C0A4202A7239541C2B00D18AE71F3B5BB22A
S315000023D02B7286E7FFFFFEFF4EF20003262240F235
S315000023E01001C4F20103985C1B6A8000C2F200016E
S315000023F041585B015B0F41F23802D940C2F200023C
S31500002400116070474EF2000340F2FE324B49C4F2AF
S31500002410010370B599524CF20002002043F6C871D0
S31500002420C4F27E02505440F2100446F60042C2F254
S315000024300004C0F2DC22226041F20022C0F27A02DD
S31500002440626048F2000242F60051A2602261262232
S31500002450C0F23111E160995C1A6A89006158520133
S31500002460520F41F23805D14040F21342C2F2000544
S31500002470296098540921A222995440F28042995C1D
S31500002480002953D04EF20002002340F28141C4F2EB
S315000024900102535401395354A033D35CCBB13623D4
S315000024A0D35C1BB93C21535CDB07FCD54EF2000222
S315000024B0A021C4F20102535CDB06D80F002BFADB25
S315000024C050544EF20002A021C4F20102535CDB0616
S315000024D0FCD44EF2000200213623C4F20102D1548C
S315000024E03C31535CDB07FCD501213123D1544FF637
S315000024F0C473C4F27E03197040F2033300201362E2
S315000025002623D054D05C136A800020585B015B0FF1
S31500002510D84040F2FE3328600948D0524CF20003FE
S3150000252043F6C872C4F27E03995470BD013140F27D
S31500002530C440995400F00EF8A4E7C04603A5FFFF77
S3150000254000A5FFFF7047C04600BEFEE70138002821
S31500002550FCD1704741F238024CF600234143C2F2E7
S31500002560000270B51468C3F69A330D00B3FBF4F499
S31500002570080040F2E8320023002101F017FE31B9CD
S31500002580B0FBF4F0800808B1FFF7E0FF70BDA000D3
S31500002590B5FBF0F040F2E8320023002101F006FE20
S315000025A00029F0D001204042FFF7D0FFEEE7C046F9
S315000025B0F8B546F2000340F2401240F66C7500246E
S315000025C00127C4F200039E5AC2F20005B6B23300D8
S315000025D0E3401F4203D02B680BB1E0B298470134A9
S315000025E00435102CF3D146F2000340F23012C4F247
S315000025F000039E52F8BDC04646F200000023C4F216
S31500002600000044F63C42C0F200029A1811781A0003
S31500002610C032920001331150202BF2D17047C046D0
S3150000262030B5EFF31081012383F3108841F23003B4
S315000026304000C2F200031A5A1AB11A5A013A92B26B
S315000026401A521B5A83B94EF2000244F6705340F2F6
S31500002650FE34C4F20102C0F20003155B185A044BA3
S315000026602B4383439BB2135381F3108830BDC0467E
S3150000267000A5FFFF70B5EFF31081012383F31088E7
S3150000268041F230024000C2F20002135A83B94EF200
S31500002690000444F6705540F2FE36C4F20104C0F25E
S315000026A00005A35B2D5A2B434AF200552B43A35337
S315000026B0135A01339BB2135281F3108870BDC04682
S315000026C000BE704710B500F003F8FEF715FDFEE7F3
S315000026D0F0B54EF6005340F20005CEF20003C0F20C
S315000026E0000583B09D600020FEF7A6FAFFF78AFE7C
S315000026F06B460027DC1D277001202378FFF7BAFF01
S31500002700EFF31081012686F3108846F6FC73C4F2B7
S3150000271004039A683B4802409A609A6881F31088DD
S3150000272040F60001C4F204010A68D207D20F2270F3
S315000027300A68D207D20F22700A68D207D20F227017
S31500002740EFF3108186F310888022986852050243C1
S315000027509A609B6881F310880120FFF761FF0120D2
S31500002760FEF76AFA40F60053274AC4F200039F8038
S3150000277026491A802A6841F2000051189960DA60E9
S3150000278046F2000240F22011C4F20002505241F219
S315000027908C2240F22800C2F20002C2F200009E80A3
S315000027A00021121A02F085F840F2000040F21002F1
S315000027B045F20841C2F20000C2F20002121AC0F24B
S315000027C0000102F06DF840F2080540F20C03C2F277
S315000027D00005C2F200035B1B9E10002B05DD0024E2
S315000027E008CD01349847A642FADCFFF7F5FD022032
S315000027F0FEF722FAFFF700FF0020FFF7A3FE03B063
S31500002800F0BDC046FFFFFFEF00A5FFFF00FCFFFF86
S315000028100300083301224360C36003610023524270
S31500002820826003607047C046002303617047C0465C
S31500002830030030B50D6808336A1C0DD01C005B68B8
S315000028401A68AA42FAD94B60996003688C60013312
S3150000285061600861036030BD04696368F3E7C046E0
S315000028600369416882688A6051605968814206D06E
S31500002870002202611A68013A1A60186870475A60A5
S31500002880F6E7C04670B51600026C0400856B52B1BF
S315000028906EB9406802F004F86368226C9B18A2685F
S315000028A06360934216D201350020A56370BDC068EF
S315000028B001F0F6FF226CE36851429B1A2268E3603E
S315000028C0934202D2A3685B18E360022EEBD1002D7F
S315000028D0EAD1E8E723686360E5E7C04670B505001E
S315000028E0FEF73EFD4523EC5C64B2002C14DD2E00A1
S315000028F0243603E0013CE2B264B26AB16B6A5BB1B2
S31500002900300001F075F90028F4D0013C01F048FAD6
S31500002910E2B264B2002AF1D14523FF22EA54FEF75F
S315000029204BFDFEF71DFD4423EC5C64B2002C14DD68
S315000029302E00103603E0013CE2B264B26AB12B69A4
S315000029405BB1300001F054F90028F4D0013C01F0ED
S3150000295027FAE2B264B2002AF1D14423FF22EA54F4
S31500002960FEF72AFD70BDC04670B504000D000028B4
S315000029705ED0C36B002B48D0026C190C100C0029DA
S3150000298036D1002851D1FEF7EBFC216CE36B2268AF
S315000029904B43D0185B1A6260D218A060E260FF2336
S315000029A044220020A063A3540132A354BDB9236975
S315000029B01BB9FEF701FD012070BD2000103001F0AB
S315000029C017F90028F5D04EF600538022CEF2000308
S315000029D052055A60BFF34F8FBFF36F8FE9E72000B0
S315000029E01030FFF715FF20002430FFF711FFE0E756
S315000029F058B9101C9BB292B25A4380B28BB2434371
S31500002A00120C9B181B0C002BBDD044F6B45345F298
S31500002A10880244F6805040F24511C0F20003C0F22D
S31500002A200002C0F20000FFF78FFD011C181CE1E751
S31500002A3044F6AC5345F2880244F6805040F2101139
S31500002A40C0F20003C0F20002C0F20000FFF77CFDF6
S31500002A5010B51C0082B0002B2BD0D0B182B1C1B111
S31500002A6048230193019B482B33D1019BE0632164EA
S31500002A70200001212260FFF777FF200002B010BD81
S31500002A8039B948230193019B482B22D12200019B8F
S31500002A90ECE744F6046345F26C0244F6805040F2DB
S31500002AA08211C0F20003C0F20002C0F20000FFF77C
S31500002AB04BFD44F6D85345F26C0244F6805040F282
S31500002AC05911C0F20003C0F20002C0F20000FFF785
S31500002AD03BFD44F6E85345F26C0244F6805040F262
S31500002AE06B11C0F20003C0F20002C0F20000FFF753
S31500002AF02BFDC04630B50D00140083B0A8B1884246
S31500002B0013D3002A31D048230193019B482B1CD1B3
S31500002B10019B002322600121D06313641000FFF79C
S31500002B2023FF2000A56303B030BD44F6106345F2D1
S31500002B30480244F6805040F2F821C0F20003C0F289
S31500002B400002C0F20000FFF7FFFC44F6E85345F22E
S31500002B506C0244F6805040F26B11C0F20003C0F2E2
S31500002B600002C0F20000FFF7EFFC44F6D85345F22E
S31500002B706C0244F6805040F25911C0F20003C0F2D4
S31500002B800002C0F20000FFF7DFFCC046F0B5C64603
S31500002B9000B584B0040088461F000192002800D1C9
S31500002BA0D3E0002900D1A5E0022F03D1E36B012B6E
S31500002BB000D0BAE001F0FCF8002800D174E0FEF77E
S31500002BC0CFFBA26BE36B9A425BD30023022F58D054
S31500002BD0019A4425002692B3002B61D0FEF7ECFB48
S31500002BE000F056FEFEF7BCFB635D5BB2013300D11D
S31500002BF066554523E05C40B2013000D1E654FEF74D
S31500002C00DBFB01A902A801F077F8002800D085E0D7
S31500002C10FEF7A6FBA26BE36B9A4214D0FEF7CCFB41
S31500002C202000FFF75BFE00F03BFEFEF799FBA36B6F
S31500002C30E26B9A4225D8019A0123002ACCD1FEF7ED
S31500002C40BBFB002028E0FEF7B7FB200001991030FF
S31500002C5000F07EFF2000FFF741FE00F021FE50B994
S31500002C604EF600538022CEF2000352055A60BFF39F
S31500002C704F8FBFF36F8FFEF773FBA26BE36B9A4226
S31500002C80D9D23A0041462000FFF7FCFD636AFBB942
S31500002C9020BBFEF791FB012004B080BCB846F0BD16
S31500002CA002A801F01BF899E7019B002B00D186E7EB
S31500002CB044F6C06345F2340244F6805040F23331A4
S31500002CC0C0F20003C0F20002C0F20000FFF73CFCB5
S31500002CD02000243000F08CFF0028DAD04EF6005396
S31500002CE08022CEF2000352055A60BFF34F8FBFF326
S31500002CF06F8FCEE7036C002B00D155E744F61863BF
S31500002D0045F2340244F6805040F22F31C0F20003FF
S31500002D10C0F20002C0F20000FFF716FC2000FFF729
S31500002D20DDFD00F0BDFD0020B6E744F6706345F218
S31500002D30340244F6805040F23031C0F20003C0F253
S31500002D400002C0F20000FFF7FFFB44F6AC5345F269
S31500002D50340244F6805040F22E31C0F20003C0F235
S31500002D600002C0F20000FFF7EFFBC046F0B5CE460A
S31500002D70474680B585B0040089460192002800D1F7
S31500002D80C4E0002900D198E001F012F8002800D133
S31500002D9073E0FEF7E5FAA76B002F5BD1019BC3B387
S31500002DA002A800F09BFF442640F200084525FEF7E6
S31500002DB003FB00F06DFDFEF7D3FAA35D5BB20133B2
S31500002DC001D14346A355635D5BB2013301D143464E
S31500002DD06355FEF7F1FA01A902A800F08DFF00BBCA
S31500002DE0FEF7BEFAA36B4BBBFEF7E6FA200001998D
S31500002DF0243000F0ADFE2000FFF770FD00F050FD1E
S31500002E0000284ED0FEF7ACFAA76B1FBB019B002B28
S31500002E10CDD1FEF7D1FA002005B0C0BCB946B04608
S31500002E20F0BD2000FFF75AFD00F03AFDFEF798FAD4
S31500002E30A36B002BEDD0FEF7BFFAE3E7FEF7BCFA73
S31500002E402000FFF74BFD00F02BFDFEF789FAA76B7C
S31500002E50002FDBD0226C42B1E168A3688918E160DB
S31500002E6099423ED2484601F01BFD013FA763236904
S31500002E70D3BBFEF7A1FA0120CEE7019B002B00D1C0
S31500002E8087E744F6C06345F2240244F6805040F2D8
S31500002E905A51C0F20003C0F20002C0F20000FFF770
S31500002EA053FB4EF600538022CEF2000352055A60C1
S31500002EB0BFF34F8FBFF36F8FA4E7036C002B00D1D6
S31500002EC062E744F6A07345F2240244F6805040F2CD
S31500002ED05551C0F20003C0F20002C0F20000FFF735
S31500002EE033FB2168E160BDE72000103000F080FE72
S31500002EF00028BED04EF600538022CEF200035205C3
S31500002F005A60BFF34F8FBFF36F8FB2E744F69473E7
S31500002F1045F2240244F6805040F25151C0F20003BB
S31500002F20C0F20002C0F20000FFF70EFBF0B585B05C
S31500002F3004000191002800D1ABE0036C002B00D007
S31500002F4097E000F035FF002862D0FEF709FAA36B80
S31500002F50002B55D1019BABB302A800F0BFFE44265F
S31500002F6000274525FEF728FA00F092FCFEF7F8F94F
S31500002F70A35D5BB2013300D1A755635D5BB201333C
S31500002F8000D16755FEF718FA01A902A800F0B4FEB1
S31500002F90E8B9FEF7E5F9A36B33BBFEF70DFA20009F
S31500002FA00199243000F0D4FD2000FFF797FC00F0D3
S31500002FB077FC00283FD0FEF7D3F9A36B03BB019B38
S31500002FC0002BCFD1FEF7F8F9002005B0F0BD2000A8
S31500002FD0FFF784FC00F064FCFEF7C2F9A36B002B3C
S31500002FE0F0D0FEF7E9F9E6E7FEF7E6F92000FFF78D
S31500002FF075FC00F055FCFEF7B3F9A36B002BDED091
S31500003000013BA363236913BBFEF7D6F90120DCE776
S31500003010019B002B99D044F6C06345F2100244F69A
S31500003020805040F2EC51C0F20003C0F20002C0F240
S315000030300000FFF789FA4EF600538022CEF2000315
S3150000304052055A60BFF34F8FBFF36F8FB3E720006F
S31500003050103000F0CDFD0028D6D04EF60053802269
S31500003060CEF2000352055A60BFF34F8FBFF36F8F46
S31500003070CAE744F6147345F2100244F6805040F253
S31500003080E751C0F20003C0F20002C0F20000FFF7F1
S315000030905BFA44F6947345F2100244F6805040F20F
S315000030A0E351C0F20003C0F20002C0F20000FFF7D5
S315000030B04BFAC04670B518B3D1B141F240030025B2
S315000030C00022C2F2000303E0013208330A2A0CD0C0
S315000030D05C6884420DD0002DF6D11C68002CF3D11B
S315000030E001321D0008330A2AF2D10DB12960686049
S315000030F070BD41F24003D200C2F20003D518F5E7D5
S3150000310044F6785344F6FC7244F6805040F6C821E3
S31500003110C0F20003C0F20002C0F20000FFF714FA8A
S3150000312070B5040016000D00FEF71AF94422A35CE0
S315000031305BB2013301D10023A3544522A35C5BB2E9
S31500003140013301D10023A354FEF736F9A36B1BB15B
S315000031502000FFF7C3FB70BD200032002900243099
S3150000316000F016FDF4E7C046F8B541F2B00341F2AF
S315000031708C170500C2F20003C2F200071E68386809
S315000031800C000430FFF76CFB6B1C20D03B687519F4
S315000031905D60AE4211D841F2FC03C2F2000318682A
S315000031A039680431FFF744FB41F29403C2F200038D
S315000031B01A68AA4200D91D60F8BD41F2F803C2F2AE
S315000031C00003186839680431FFF732FBF4E7002C76
S315000031D0DCD041F2B803C2F2000339685A688A604B
S315000031E090683968C86039680431416039680431CB
S315000031F091603A6853611A6801321A60DCE7C0468A
S31500003200F8B54746CE46802341F2CC0441F2D006BB
S3150000321041F2B4054EF6005880B541F228175B0519
S315000032209946C2F20004C2F20006C2F20005C2F2DA
S315000032300007CEF200080EE0FEF792F8F368D868B1
S315000032400430FFF70DFB2B68013B2B602368013B25
S315000032502360FEF7B1F82368002BEDD13B68012B04
S3150000326006D943464A465A60BFF34F8FBFF36F8F66
S31500003270FEF7F8F8EFE7C046F0B5DE4657464E468D
S31500003280454641F2B003E0B5C2F200031A6883B0C6
S31500003290013294461A60002A00D17FE041F294037D
S315000032A0C2F200031A6840F2000B944564D341F25F
S315000032B0FC07C2F200073A681268002A59D041F2A8
S315000032C0AC0941F2281841F28C1AC2F20009C2F286
S315000032D00008C2F2000A019339E000215961116821
S315000032E0013911609A6A6AB1D969186A55688860A5
S315000032F04160190018318D424ED000219962116843
S31500003300013911604A46D96A1268914201D94A4682
S31500003310116041F228108A0052189200C2F2000091
S315000033201518686886689860DE60746084605D6100
S31500003330434640469B580133835053461B68DB6A1D
S31500003340994201D340F2010B3B681B6883B13B688D
S31500003350DB68DB685A68944549D35A699868D96826
S315000033601C1D816048605068A042B6D15160B4E728
S31500003370019B012252421A6041F2A003C2F20003ED
S315000033801B680BB140F2010B584603B0F0BCBB46BC
S31500003390B246A946A046F0BD5060AEE741F2FC0336
S315000033A0C2F200031A6812685ABB41F2F802C2F26E
S315000033B00002196810681860116041F29C02C2F29E
S315000033C000021168013111601A68126832B941F2BF
S315000033D09403013AC2F200031A6063E71B68DB68D4
S315000033E01A6841F29403C2F200031A605AE7019B7D
S315000033F01A6041F2A003C2F200031B68002BC3D07F
S31500003400C0E745F2D00345F2C42245F2A40040F6D7
S31500003410C721C0F20003C0F20002C0F20000FFF7AD
S3150000342093F8C046F0B54F464646D646C0B582B07C
S3150000343080460B9899460A9F0C9D002800D1FCE017
S31500003440002D00D119E160230193019B602B00D070
S3150000345003E1019B994B28639C4607236244920033
S31500003460801898438246002900D1A1E02B00002451
S3150000347034330E571E5516B10134102CF9D143239F
S315000034800022EA54042F00D907E12C1D2000EF6228
S31500003490FFF7CAF928001830FFF7C6F905232800F8
S315000034A0DB1BAB61142200212D616D62443001F0FB
S315000034B000FA280004220021583001F0FAF92B0006
S315000034C000225C331A70296B4B4642465046FDF784
S315000034D033FF2860FDF744FF41F2B40341F28C1636
S315000034E0C2F200031A68C2F2000601321A6032689C
S315000034F0002A4FD041F2A808C2F2000843461B68D2
S31500003500EA6A002B40D041F22817C2F2000741F2C6
S315000035109803C2F2000319680131196041F2AC0345
S31500003520C2F200031968914200D21A6093009B18F8
S3150000353041F228129B00C2F2000299184A6890686C
S31500003540AA60E86044609460FA5869610132FA50F2
S31500003550FDF732FF43461B687BB13368DA6AEB6AD4
S315000035609A420AD24EF600538022CEF2000352054A
S315000035705A60BFF34F8FBFF36F8F280002B0E0BCD5
S31500003580BA46B146A846F0BD3368DB6A9342BAD85C
S315000035903560B8E735601B68012B0CD041F228175F
S315000035A041F2A808EA6AC2F20007C2F20008AEE7D2
S315000035B03423E95466E741F2281740F26409C2F25F
S315000035C00007B846B9444046FFF722F940F2140C0A
S315000035D0E044C145F7D141F2141941F20018C2F294
S315000035E00009C2F200084846FFF712F94046FFF705
S315000035F00FF941F2E400C2F20000FFF709F941F2C7
S31500003600D000C2F20000FFF703F941F2B800C2F29F
S315000036100000FFF7FDF841F2FC034A46C2F2000340
S315000036201A6041F2F803424641F2A808C2F20003CA
S315000036301A60C2F20008EA6A69E745F2481345F2E1
S31500003640283245F2A40040F24A21C0F20003C0F23B
S315000036500002C0F20000FEF777FF45F2841345F240
S31500003660283245F2A40040F25321C0F20003C0F212
S315000036700002C0F20000FEF767FF45F2681345F24C
S31500003680283245F2A40040F24B21C0F20003C0F2FA
S315000036900002C0F20000FEF757FF45F2A01345F204
S315000036A0103245F2A40040F29731C0F20003C0F296
S315000036B00002C0F20000FEF747FFC046FFFFFF3FD3
S315000036C010B50400FDF74CFE24B1E46AFDF774FE64
S315000036D0200010BD41F28C13C2F200031C68F4E70F
S315000036E0F8B504000D00042900D971E0FDF738FE95
S315000036F0002C40D0E36A9D421BD041F22816C2F24C
S315000037000006B4469A00D2189200A1696069624424
S315000037109D4211D841F28C13C2F200031B68A342EA
S3150000372015D0E56200292CDB05235B1BA3619042C3
S3150000373029D0FDF741FEF8BD41F28C13C2F2000319
S315000037401E68A642EDD01B68DB6AAB42E9D8E5628B
S31500003750002902DB05235B1BA361904236D04EF69F
S3150000376000538022CEF2000352055A60BFF34F8FFA
S31500003770BFF36F8FDDE741F28C13C2F200031C68C2
S31500003780B8E79042D5D10026251D2800FFF768F836
S3150000379041F2AC03C2F20003E16A1A68914200D911
S315000037A0196041F228128B005B18C2F200029B00DE
S315000037B0981841688F68A160E7607D608D60D15878
S315000037C060610131D150002EC9D1B2E70126DBE795
S315000037D045F2B41345F2FC2245F2A40040F215610D
S315000037E0C0F20003C0F20002C0F20000FEF7ACFE19
S315000037F010B5002488B007AA06A905A80594069462
S31500003800FDF7A2FC45F2C81143F20120059B079A79
S315000038100293069B00940193C0F200010023C0F2BC
S315000038200000FFF7FFFD28B100F064FC012808D076
S3150000383001301CD040F20403C2F200031B6808B03A
S3150000384010BD80F3108841F294030122C2F20003F6
S3150000385052421A6041F2A803C2F20003186041F214
S31500003860B003C2F200031C60FDF72CFEE2E745F24E
S31500003870D01345F2E82245F2A40040F64001C0F21A
S315000038800003C0F20002C0F20000FEF75DFEC04673
S3150000389041F29003C2F200031A6801321A607047BF
S315000038A0F0B5DE4657464E46454641F29004E0B531
S315000038B0C2F20004236883B0002B00D1CAE0FDF7F2
S315000038C04FFD2368013B23602368002B6ED141F234
S315000038D0B403C2F200031B68002B67D041F2E40C6C
S315000038E0C2F2000C63461B68002B00D1ADE041F22A
S315000038F08C1A41F2AC09C2F2000A534641F228186A
S3150000390041F2A00BC2F2000900934B46C2F2000836
S31500003910C2F2000B40466546D846A446019337E0FE
S31500003920002199621168013911609C68D9685A6949
S31500003930A1604C601C1DA14654684C4541D01168DD
S31500003940DC6A0139116001990A68944200D90C6059
S3150000395041F22811C2F200018A46A2001219920011
S31500003960924451464E4649688F689960DF607E6092
S315000039708E6051465961835801338350009B1B6802
S31500003980DB6A9C4202D3434601221A602B68D3B1FC
S31500003990EB68DB68DC69196A9A6AA1604C601C00F6
S315000039A057681834A742BBD15160B9E70024FDF728
S315000039B003FD200003B0F0BCBB46B246A946A046B4
S315000039C0F0BD5160BBE741F2FC03C2F200031A6886
S315000039D064461268C3468AB31B68DB681A6841F2FC
S315000039E09403C2F200031A6041F2A406C2F2000672
S315000039F0356895B1012706E0FFF73EFC08B15B4646
S31500003A001F60013D45B12368002BF5D03368013DA9
S31500003A1001333360002DF6D135605B461B68002B01
S31500003A20C4D04EF600538022CEF2000352055A60EF
S31500003A30BFF34F8FBFF36F8F0124B8E741F29403B2
S31500003A40013AC2F200031A60CEE741F2A00BC2F2BD
S31500003A50000BC9E745F2E41345F2D82245F2A4006B
S31500003A6040F6B301C0F20003C0F20002C0F200004B
S31500003A70FEF76AFD41F2B003C2F200031868704710
S31500003A8041F29003C2F200031B6810B513B9FFF7A9
S31500003A90F3FB10BD41F2A403C2F200031A68002032
S31500003AA001321A60F5E7C04641F29003C2F2000304
S31500003AB01B6870B533B141F2A0030122C2F20003C4
S31500003AC01A6070BD41F2A00241F2AC0441F2281026
S31500003AD0C2F200021360C2F200042368C2F20000C0
S31500003AE001E023B3013B9900CA1892008258002ACC
S31500003AF0F7D041F2281541F22812C2F20005AC4671
S31500003B00C9188900C2F20002881842680831526852
S31500003B10614442608A4207D0D16841F28C12C2F2F7
S31500003B20000211602360CCE752684260F4E745F278
S31500003B30FC1345F2B02245F2A40040F60241C0F261
S31500003B400003C0F20002C0F20000FEF7FDFCC04612
S31500003B5010B50C0060B141F28C13C2F20003196873
S31500003B601831FEF765FE01212000FFF7FDFA10BDB2
S31500003B7045F20C2345F2982245F2A40040F61C417A
S31500003B80C0F20003C0F20002C0F20000FEF7DCFC47
S31500003B90030070B508001100D3B141F28C14C2F2D3
S31500003BA000045A6825689668EA6125682E622568C9
S31500003BB018357560256818359560226893621A680D
S31500003BC001321A6009B101204042FFF7CDFA70BDFB
S31500003BD045F20C2345F2782245F2A40040F6524104
S31500003BE0C0F20003C0F20002C0F20000FEF7ACFC17
S31500003BF0F8B5C368DB68002B5FD0D869196A9A6A82
S31500003C0081604860180054681830844251D0002101
S31500003C10996211680139116041F29002C2F2000204
S31500003C201268D96A32BB5A699C68D8681D1DA060A3
S31500003C3044605468AC423ED010680138106041F2CE
S31500003C40AC02C2F200021068884200D2116041F252
S31500003C5028108A005218C2F20000920016187468E2
S31500003C60A7689C60DF607D60A5605E618358013354
S31500003C7083500DE041F2E402C2F200025468A568E6
S31500003C80DC611D626860A0609A621368013313608C
S31500003C9041F28C13C2F200031B680020DB6A8B42E0
S31500003CA006D241F2A0030122C2F200031A600130DB
S31500003CB0F8BD5160ABE75060BEE745F2182345F208
S31500003CC05C2245F2A40040F68241C0F20003C0F235
S31500003CD00002C0F20000FEF737FCC04641F29C032A
S31500003CE0C2F200031B68036041F2B003C2F2000394
S31500003CF01B6843607047C046F0B5C64604000D0019
S31500003D0000B560B300293AD0FDF72AFB41F2B003B3
S31500003D102A68C2F200031868511C1ED041F29C01A9
S31500003D20C2F200010F686668B846276847450AD0A0
S31500003D30864208D8002301242B60FDF73DFB2000B6
S31500003D4080BCB846F0BD871BBA42F3D9121A921945
S31500003D502A600A681B68226063600024EDE745F26A
S31500003D60282345F2442245F2A40040F6FD41C0F264
S31500003D700003C0F20002C0F20000FEF7E5FB45F2C8
S31500003D80342345F2442245F2A40040F6FE41C0F237
S31500003D900003C0F20002C0F20000FEF7D5FBC046E9
S31500003DA041F2A0030122C2F200031A607047C04626
S31500003DB041F2A803C2F200031B6801203BB141F2A5
S31500003DC09003C2F20003186843425841400070470E
S31500003DD0F0B541F2582483B0C2F20004FDF7C0FAF0
S31500003DE025681DB1FDF7E8FA03B0F0BD41F278276A
S31500003DF041F26426C2F200073800C2F20006FEF75E
S31500003E0007FD3000FEF704FD41F26023C2F2000315
S31500003E101F6041F25C23C2F200031E6041F2D81219
S31500003E2041F290130C210A200095C2F20003C2F25F
S31500003E300002FEF70DFE20600028D3D045F23C318B
S31500003E40C0F20001FFF736F9CCE7C046F8B54746A1
S31500003E5041F26028C2F200084346CE461B6880B590
S31500003E60DB680500DC680F00231D18009946FEF785
S31500003E70F7FC2422A35C590710D401218B43A354D9
S31500003E802000236A9847C0BCB946B046F8BD7D1BE2
S31500003E90AB4213D82000236A98473500A3692461F2
S31500003EA0EE186660B742F2D2AF4201D2B542F1D9FE
S31500003EB0434649461868FEF7BBFCE1E741F25C233E
S31500003EC0C2F2000349461868FEF7B2FCD8E7C046BE
S31500003ED0F0B54E46DE464546574641F25028E0B517
S31500003EE041F2582441F2602641F25C294EF6005B0D
S31500003EF07F4B87B0C2F20006C2F20008C2F200048D
S31500003F000193C2F20009CEF2000B33681F68002F3E
S31500003F1000D1ACE0DB681F68FFF7BAFCFFF7AAFD2B
S31500003F2043461B68050083423AD8434618608742D9
S31500003F3000D8ADE000222068791BFFF7F1F8FFF703
S31500003F40AFFC38B980225B4652055A60BFF34F8FEB
S31500003F50BFF36F8F0022206803A9FEF707FF002832
S31500003F60D3D0039B002BF5DB059D6B6913B1281D90
S31500003F70FEF776FCFFF77EFD43461B680700984276
S31500003F8022D343461F60039B092BE3D8019A9B006B
S31500003F90D3589F460121DB6849421868FFF756FF50
S31500003FA033681A68002AF5D14A46126832604A46D2
S31500003FB0136043461D60FFF773FCCBE70121DB6806
S31500003FC049421868FFF742FF33681A68002AF5D19C
S31500003FD04A46126832604A461360D2E72422012319
S31500003FE0A85C04990343AB54AA692D618B186B60D6
S31500003FF0BB4254D8791A8A4264D8410715D40123A2
S3150000400098432333E85428002B6A9847A2E72422D2
S315000040100121AB5C8B43AB549CE7FB1A93424BD319
S315000040202B6A280098475346AA6999188A466960F8
S315000040302D618F42F1D29F4201D28B42F0D9306876
S31500004040291DFEF7F5FBDEE724220121AB5C0B43BD
S31500004050AB54049BAB61DBB3DB196B602D61291D8F
S31500004060BB4225D84B461868FEF7E2FB72E7FFF71E
S315000040700FFCFFF7FFFC43461B68050083428FD801
S3150000408043461D604B461B681A6853425A4152E725
S31500004090FFF706FC29003800FFF7D8FE5AE7B942B9
S315000040A001D99942A9D93068291DFEF7C1FB51E70C
S315000040B03068FEF7BDFB4DE74B46291D1868FEF735
S315000040C0B7FBA0E74B46291D1868FEF7B1FB41E791
S315000040D045F2443345F2D03245F26C3040F2593164
S315000040E0C0F20003C0F20002C0F20000FEF72CFA94
S315000040F09853000000B589B0FFF76AFE41F25823D5
S31500004100C2F200031B6813B3002307AA06A905A879
S3150000411005930693FDF726F8059B45F2C0310293F9
S31500004120069B43F6D16001930323079A0093C0F2DE
S3150000413000010023C0F20000FFF774F941F2542396
S31500004140C2F20003186010B1012009B000BD45F2AB
S31500004150C83345F2EC3245F26C3040F21911C0F228
S315000041600003C0F20002C0F20000FEF7EDF9C046FF
S315000041701C2101231B04984201D3000C10391B0A91
S31500004180984201D3000A08391B09984201D3000955
S31500004190043902A2105C40187047C04604030202AC
S315000041A0010101010000000000000000F0B54FF61B
S315000041B0FF750400CE462C40474615400E002900E8
S315000041C0994680B5130C0700000C614345435843DC
S315000041D063430C0C5B19E4188C46A54203D9802373
S315000041E05B0298464044230C61461B184FF6FF704D
S315000041F00840494656437943240489192018C918AA
S31500004200C0BCB946B046F0BDF0B54F46D6464646A8
S31500004210430244005B0A240EC0B599460F1CC50F25
S31500004220002C00D189E0FF2C00D18DE08022DB003C
S31500004230D2041A43914640F2000840F2000A7F3C3D
S315000042407B007E021B0E760AFF0F002B68D0FF2B29
S3150000425021D08022F600D204164342467F3B1B192A
S3150000426000215C1C0A2A2EDC7D404246022A23DC01
S31500004270013A012A00D9BCE002296CD001292CD1CF
S3150000428000200022C005ED0710432843E0BCBA46D3
S31500004290B146A846F0BD2300FF33002E63D00322AB
S315000042A0414611432A00013488467A40FF340A29E0
S315000042B000DDD8E01500032140460122824040F28D
S315000042C03050104220D05346022B44D0032B00D14D
S315000042D0BBE051464E460129D2D023007F33002B46
S315000042E06FDD720704D00F223240042A00D0043654
S315000042F0320103D5624B1E4023008033FE2B2ADC9D
S31500004300B201520AD8B2BDE740F24020104225D190
S31500004310B938FF3810426CD03D00B1468A46D2E724
S31500004320002E40D1012342461A43904623004246BE
S3150000433001215C1C0A2A97DDC5E72BBB40F2040865
S31500004340002440F2010A7BE7C3B940F20808FF24C3
S3150000435040F2020A74E7FF20002293E7802200253C
S31500004360FF20D2038EE741460222013411438846DC
S31500004370FF340A29A7DC02217D4076E740F20C08CB
S31500004380FF2440F2030A5BE71800FFF7F1FE4A46F6
S315000043907624431F9A406442914640F2000840F258
S315000043A0000A241A4CE73000FFF7E2FE4246431F9C
S315000043B09E40231A763B00215C1C0A2A00DC53E748
S315000043C081E70122D31A1B2B00DD59E79E34320008
S315000043D0A640DA40731E9E413243530704D00F2392
S315000043E01340042B00D00432530138D5012000229B
S315000043F048E74A464FF6FF71170C0A403140300C29
S315000044000E007943564347435043320C4018121866
S31500004410914203D9802149028C4667444FF6FF70CA
S315000044201104304009188E01701E8641120C890E47
S31500004430D2190E439201164312010ED501237208BA
S315000044401E40164349E73D00B14680224B46D20343
S315000044501A435202FF20520A14E71C003DE792015C
S315000044600020520A0EE70F29EDD180224B46D203D7
S315000044701342EAD01642E8D13D00FF20324301E75D
S31500004480FFFFFFF7F8B54746CE464E02430245000A
S31500004490720AC40F480080B594465F0A2D0E9B0928
S315000044A0000EC90FB609FF2823D0012251402A1A4F
S315000044B08C420ED0002A00DC69E1A8BB002E00D198
S315000044C0A4E0511E012A00D125E1FF2A21D00A00CD
S315000044D02FE0002A00DC67E1002861D0FF2D18D00C
S315000044E08021C9040E431B2A00DC78E02A00013330
S315000044F033E02A00FF3A9146002E43D08C4257D033
S315000045004A46002A00D19EE0002D00D179E00C0039
S315000045103300DB08002B00D170E08022D203134366
S315000045205B02FF205B0A25E0FF2DF2D08021C90443
S315000045300E4301211B2A08DC31002020D140821ABB
S3150000454096403200501E824111435B1A5A0162D4D2
S31500004550072119402A00002958D00F2119400429A3
S3150000456000D00433590151D5501CFE2A46D09B0178
S31500004570C0B25B0AC0051843E4072043C0BCB94675
S31500004580B046F8BD40F20108424651408C42B7D1D0
S315000045904A4682B1002D00D197E00023DB08B9E737
S315000045A0A6B3511E012A6ED0FF2AB2D00A009AE79E
S315000045B0002A00D088E0FE206A1C104200D091E05C
S315000045C0002D00D0A3E0002B00D1CAE0002E00D0C1
S315000045D0C9E00022DB085B025B0AD0B2CAE7310001
S315000045E02020D140821A96403200501E82410A4352
S315000045F09B185A01ACD56A1CFE2D4AD1FF20002318
S31500004600B8E7FF22002B4BD10C003300DB08FF2A52
S3150000461000D17FE7DFE79F01BF093800FFF7A8FD5C
S3150000462005388740854221DC3B002021421B0132B0
S31500004630D3408A1A97407A1E974100223B43590776
S3150000464000D08AE78EE7FE206A1C104212D1002DA8
S3150000465051D1002B7BD0002EBBD09A1B500100D429
S315000046608AE001240022F31A0C40E8E7544B2A1A88
S315000046703B40E4E79F1B7A0145D4002FCDD10024AF
S315000046800020002376E79B1901250132590100D449
S315000046905EE701214B4819405B0803400B43CEE718
S315000046A0571E012A59D00C00FF2A31D001221B2F98
S315000046B007DC2021C91B1A008B40FA40591E8B418A
S315000046C01A430500B31A41E715BBFF22002B9CD005
S315000046D0511E012AD7D0FF2A1AD01B292CDD020031
S315000046E0731C3AE7FF2A89D09B195B08590700D04B
S315000046F033E7DB086FE78BB9002E43D00124330084
S315000047000C40DB0806E70124F71A0C4085E72BB9B5
S315000047103300DB08FEE601259B1B17E7002E00D1C0
S31500004720F7E68022D203974204D3944502D20124AD
S3150000473033000C40DB08F0E61A002025CA40691A4F
S315000047408B40591E8B41134305009B1951E7002EE0
S3150000475095D0012433000C403BE70C000125F31AE9
S31500004760F4E6330035E79B1900225901C1D5144AF6
S315000047701340DB0801222EE7002A80D01300002216
S31500004780DB0828E780230024FF20DB03F2E6002A6B
S3150000479000D158E7471B3A00002D00D132E78022AE
S315000047A0D2040C00134381E7002A00D103E7411B22
S315000047B00DB90A008AE78022D20413438DE7C0466A
S315000047C0FFFFFFFBFFFFFF7D41024200C30F490AC7
S315000047D00020120E7E2A03DD9D2A02DD094A981862
S315000047E07047802000040143952A07DC9620821A30
S315000047F0D1404842002BF3D10800F1E7963A9140A8
S31500004800F7E7C046FFFFFF7F70B598B1C317C5181D
S315000048105D40C40F2800FFF7ABFC9E2301001B1A66
S31500004820962B0FDC082834D008398D406D026D0AAE
S31500004830D8B202E0002400200025C0052843E40782
S31500004840204370BD992B16DC421F052800D09540E9
S315000048502A00124802406E0709D00F263540042D63
S3150000486005D00432550102D59F2302405B1A9201FE
S31500004870550AD8B2E1E70522121A2800D0400200F4
S3150000488008001B3085402800451EA841024315003C
S31500004890DEE76D0296206D0ACFE7C046FFFFFFFBFD
S315000048A0002310B59A4200D110BDCC5CC45401332C
S315000048B0F8E703008218934200D17047197001335C
S315000048C0F9E7FFFF4275696C7420776974682052B6
S315000048D0656E6573617320416476616E63656420FD
S315000048E0466C657869626C6520536F667477617291
S315000048F065205061636B6167652076657273696FC9
S315000049006E20342E322E3000342E322E300000002F
S3150000491000000204F8B5C046F8BC08BC9E467047C5
S31500004920F8B5C046F8BC08BC9E4670475465726D23
S31500004930696E616C00FFFFFF000000000000545428
S31500004940522052454747455300FFFFFFFA09000032
S3150000495014090000140900001409000014090000DD
S3150000496014090000140900001409000014090000CD
S315000049701409000014090000180A0000960A000035
S3150000498014090000140900001409000014090000AD
S31500004990140900001409000014090000140900009D
S315000049A0140900001409000014090000760A00002A
S315000049B014090000140900004E0A00001409000042
S315000049C0300A00001409000014090000FA0900006A
S315000049D0303132333435363738394142434445462F
S315000049E0257300FF0D0A2F2F2F2F205441534B20E4
S315000049F0424154544552592069732072756E6E694E
S31500004A006E67202F2F2F2F2F2F0D00002A2A2052BE
S31500004A105F4144435F5363616E436667204150497B
S31500004A20206661696C6564202A2A200D0A00000050
S31500004A300D4144432053746172746564205363616D
S31500004A406E0D00002A2A20525F4144435F53636182
S31500004A506E537461727420415049206661696C65B9
S31500004A6064202A2A200D00000D5265616420636FC0
S31500004A706E76657274656420646174610D00000071
S31500004A802A2A20525F4144435F52656164204150A7
S31500004A9049206661696C6564202A2A200D0A000097
S31500004AA00D41444320696E70757420766F6C746195
S31500004AB067653A2025730D0A00FFFFFF2F2F2F2F62
S31500004AC02F205441534B2055415254206973207274
S31500004AD0756E6E696E67202F2F2F2F2F2F0D0A00F0
S31500004AE054657374650D0A004D736720646520650F
S31500004AF06E76696F3A2025730D0A00004D736720A4
S31500004B0072656365626964613A2025730D0A00FF68
S31500004B102C090020884B0000304D000001000000E9
S31500004B200000000000000000000000000000001867
S31500004B3000000200000004DF01FF0000690C000015
S31500004B4000000000484B000000010200110006DFD3
S31500004B5001FFFFFF0302000002080201020A02032E
S31500004B60000000000000000011100000000000001E
S31500004B70744B000000010000000000200F00FFFF42
S31500004B8000000000FFFF000011000000904B000035
S31500004B900080000000000000040000000200000089
S31500004BA0008000000A000000008000000B000000EA
S31500004BB0000000000E0000000000010008010000D7
S31500004BC004000000060200000400000007020000C6
S31500004BD00400000008020000000000000D020000B2
S31500004BE000000100000300000400000000040000B3
S31500004BF00400000001040000040000000704000097
S31500004C000000010508040000000001050904000079
S31500004C1004000000000500007461736B5F6261743C
S31500004C207465727900FFFFFF000000007461736B0A
S31500004C305F7561727400FFFF00000000001D001A1E
S31500004C40070005001F001C00000000000000000017
S31500004C5000000000000000000000000075635356CD
S31500004C60434E756D626572203C3D203300000000A6
S31500004C702E2E2F72612F6673702F7372632F726DD3
S31500004C805F6672656572746F735F706F72742F7092
S31500004C906F72742E6300FFFF2828285343425F5427
S31500004CA0797065202A29202828307845303030450B
S31500004CB0303030554C29202B203078304430305558
S31500004CC04C2920292D3E494353522026202830784E
S31500004CD0314646554C202929203D3D203000FFFF16
S31500004CE07578437269746963616C4E657374696E35
S31500004CF06700FFFF76506F72744578697443726976
S31500004D00746963616C00FFFF76506F7274456E7450
S31500004D106572437269746963616C00FF76506F72E5
S31500004D207453564348616E646C65725F4300FFFFBF
S31500004D30DD1C0000B51A0000F51C0000011D000076
S31500004D407D1B0000C91B0000BD1A0000191B0000D6
S31500004D50411B0000651B0000A91B0000E11A0000B2
S31500004D60F91A00000A0900000A0900003F0B0000BA
S31500004D700100020008001000785175657565000095
S31500004D802E2E2F72612F6177732F467265655254EE
S31500004D904F532F4672656552544F532F536F75729A
S31500004DA063652F71756575652E6300FF70785175A3
S31500004DB0657565007852657475726E20213D2028F0
S31500004DC0202820282042617365547970655F74201D
S31500004DD02920302029202900707853746174696372
S31500004DE051756575650000007853697A65203D3D0B
S31500004DF02073697A656F66282051756575655F74DD
S31500004E002029000070784E6577517565756500FF3D
S31500004E107848616E646C65002128202820707649E8
S31500004E2074656D546F5175657565203D3D20282864
S31500004E30766F6964202A29302920292026262028F1
S31500004E4020707851756575652D3E75784974656D68
S31500004E5053697A6520213D202820554261736554A7
S31500004E607970655F7420292030552029202900009B
S31500004E70212820282078436F7079506F73697469F0
S31500004E806F6E203D3D2028202820426173655479AD
S31500004E9070655F74202920322029202920262620AB
S31500004EA02820707851756575652D3E75784C656E50
S31500004EB067746820213D2031202920290000000048
S31500004EC02128202820785461736B476574536368E2
S31500004ED06564756C657253746174652829203D3D5F
S31500004EE0202820282042617365547970655F7420FC
S31500004EF02920302029202920262620282078546998
S31500004F00636B73546F5761697420213D20302029EB
S31500004F10202900FF707851756575652D3E757849B5
S31500004F2074656D53697A65203D3D203000000000B0
S31500004F302128202820707851756575652D3E70638F
S31500004F4048656164203D3D202828766F6964202AE3
S31500004F502930292029202626202820707851756599
S31500004F6075652D3E752E7853656D6170686F726537
S31500004F702E784D75746578486F6C64657220213D96
S31500004F80202828766F6964202A293029202920299B
S31500004F9000FFFFFF28207078517565756520290090
S31500004FA021282028202820707642756666657220A2
S31500004FB029203D3D202828766F6964202A2930293A
S31500004FC020292026262028202820707851756575EE
S31500004FD06520292D3E75784974656D53697A65207B
S31500004FE0213D2028205542617365547970655F74B0
S31500004FF020292030552029202900FFFF765175658C
S315000050007565416464546F5265676973747279009B
S3150000501078517565756553656D6170686F72655415
S31500005020616B65007851756575655265636569766E
S315000050306500FFFF78517565756547656E65726930
S315000050406353656E6400FFFF78517565756543723D
S3150000505065617465436F756E74696E6753656D61DE
S3150000506070686F7265537461746963007851756511
S31500005070756547656E6572696343726561746553EC
S31500005080746174696300FFFF7851756575654765DE
S315000050906E65726963526573657400FF7854617357
S315000050A06B0000002E2E2F72612F6177732F4672D0
S315000050B0656552544F532F4672656552544F532FB0
S315000050C0536F757263652F7461736B732E6300FF84
S315000050D02820282028202820707844656C6179656E
S315000050E0645461736B4C69737420292D3E75784E38
S315000050F0756D6265724F664974656D73203D3D201E
S3150000510028205542617365547970655F74202920A3
S31500005110302029203F2028202820426173655479B9
S3150000512070655F74202920312029203A2028202804
S315000051302042617365547970655F742029203020A0
S31500005140292029202900FFFF707578537461636B4D
S3150000515042756666657220213D202828766F69644F
S31500005160202A29302900000070785461736B42753B
S315000051706666657220213D202828766F6964202A9C
S31500005180293029007853697A65203D3D2073697A74
S31500005190656F6628205443425F7420290000000092
S315000051A075785072696F72697479203C20283529A8
S315000051B000FFFFFF75784E65775072696F726974EC
S315000051C079203C202835290049444C450000000040
S315000051D07852657475726E20213D2028202D31206D
S315000051E02900FFFF75785363686564756C657253B3
S315000051F0757370656E64656400FFFFFF7578546FA4
S31500005200705072696F7269747900FFFF7078457625
S31500005210656E744C697374007078556E626C6F635A
S315000052206B656454434200FF707854696D654F7531
S315000052307400FFFF70785469636B73546F5761692C
S315000052407400FFFF785461736B436865636B466F48
S315000052507254696D654F757400FFFFFF7854617372
S315000052606B52656D6F766546726F6D4576656E74C9
S315000052704C69737400FFFFFF765461736B506C6169
S3150000528063654F6E4576656E744C697374526573CB
S315000052907472696374656400765461736B506C61F3
S315000052A063654F6E4576656E744C69737400FFFFD7
S315000052B0765461736B537769746368436F6E746574
S315000052C0787400FF785461736B496E6372656D651F
S315000052D06E745469636B00FF785461736B52657327
S315000052E0756D65416C6C00FF765461736B53746128
S315000052F072745363686564756C6572007654617385
S315000053006B5072696F7269747953657400FFFFFFA1
S31500005310707276496E697469616C6973654E6577FA
S315000053205461736B00FFFFFF785461736B437265C2
S3150000533061746553746174696300FFFF546D725143
S3150000534000FFFFFF2820707854696D65722D3E7846
S3150000535054696D6572506572696F64496E5469630C
S315000053606B73203E20302029000000002E2E2F7265
S31500005370612F6177732F4672656552544F532F46DE
S3150000538072656552544F532F536F757263652F7450
S31500005390696D6572732E6300543F0000DC3F0000A8
S315000053A0DC3F00000E400000484000000E400000B8
S315000053B0DC3F0000DC3F00000E40000048400000DB
S315000053C0546D7220537663007852657475726E0060
S315000053D070727650726F6365737352656365697632
S315000053E06564436F6D6D616E647300FF7854696D1B
S315000053F0657243726561746554696D657254617353
S30D000054006B00FFFF0000000035
S31500005408080007000400000081050000510500009F
S31501010018FFFFFFFFFFFFFFFFFFFFFFFFFFFFFFFFE0
S31101010028FFFFFFFFFFFFFFFFFFFFFFFFD0
S705000026C50F
